{
  "address": "0x30C8184355Fd142479AFa5EFf02e6aEF42c1e8B4",
  "abi": [
    {
      "inputs": [
        {
          "internalType": "address",
          "name": "owner",
          "type": "address"
        },
        {
          "internalType": "address",
          "name": "_tokenV1",
          "type": "address"
        },
        {
          "internalType": "address",
          "name": "_tokenV2",
          "type": "address"
        }
      ],
      "stateMutability": "nonpayable",
      "type": "constructor"
    },
    {
      "anonymous": false,
      "inputs": [
        {
          "indexed": false,
          "internalType": "address",
          "name": "user",
          "type": "address"
        },
        {
          "indexed": false,
          "internalType": "uint256",
          "name": "amount",
          "type": "uint256"
        }
      ],
      "name": "AirdropSnapshotv1",
      "type": "event"
    },
    {
      "anonymous": false,
      "inputs": [
        {
          "indexed": true,
          "internalType": "bytes32",
          "name": "role",
          "type": "bytes32"
        },
        {
          "indexed": true,
          "internalType": "bytes32",
          "name": "previousAdminRole",
          "type": "bytes32"
        },
        {
          "indexed": true,
          "internalType": "bytes32",
          "name": "newAdminRole",
          "type": "bytes32"
        }
      ],
      "name": "RoleAdminChanged",
      "type": "event"
    },
    {
      "anonymous": false,
      "inputs": [
        {
          "indexed": true,
          "internalType": "bytes32",
          "name": "role",
          "type": "bytes32"
        },
        {
          "indexed": true,
          "internalType": "address",
          "name": "account",
          "type": "address"
        },
        {
          "indexed": true,
          "internalType": "address",
          "name": "sender",
          "type": "address"
        }
      ],
      "name": "RoleGranted",
      "type": "event"
    },
    {
      "anonymous": false,
      "inputs": [
        {
          "indexed": true,
          "internalType": "bytes32",
          "name": "role",
          "type": "bytes32"
        },
        {
          "indexed": true,
          "internalType": "address",
          "name": "account",
          "type": "address"
        },
        {
          "indexed": true,
          "internalType": "address",
          "name": "sender",
          "type": "address"
        }
      ],
      "name": "RoleRevoked",
      "type": "event"
    },
    {
      "inputs": [],
      "name": "ADMIN",
      "outputs": [
        {
          "internalType": "bytes32",
          "name": "",
          "type": "bytes32"
        }
      ],
      "stateMutability": "view",
      "type": "function"
    },
    {
      "inputs": [],
      "name": "DEFAULT_ADMIN_ROLE",
      "outputs": [
        {
          "internalType": "bytes32",
          "name": "",
          "type": "bytes32"
        }
      ],
      "stateMutability": "view",
      "type": "function"
    },
    {
      "inputs": [
        {
          "internalType": "uint256",
          "name": "amount",
          "type": "uint256"
        }
      ],
      "name": "airDrop",
      "outputs": [],
      "stateMutability": "nonpayable",
      "type": "function"
    },
    {
      "inputs": [],
      "name": "carboV1Addr",
      "outputs": [
        {
          "internalType": "address",
          "name": "",
          "type": "address"
        }
      ],
      "stateMutability": "view",
      "type": "function"
    },
    {
      "inputs": [],
      "name": "carboV2Addr",
      "outputs": [
        {
          "internalType": "address",
          "name": "",
          "type": "address"
        }
      ],
      "stateMutability": "view",
      "type": "function"
    },
    {
      "inputs": [
        {
          "internalType": "address",
          "name": "account",
          "type": "address"
        }
      ],
      "name": "changeAdminRole",
      "outputs": [],
      "stateMutability": "nonpayable",
      "type": "function"
    },
    {
      "inputs": [
        {
          "internalType": "bytes32",
          "name": "role",
          "type": "bytes32"
        }
      ],
      "name": "getRoleAdmin",
      "outputs": [
        {
          "internalType": "bytes32",
          "name": "",
          "type": "bytes32"
        }
      ],
      "stateMutability": "view",
      "type": "function"
    },
    {
      "inputs": [
        {
          "internalType": "bytes32",
          "name": "role",
          "type": "bytes32"
        },
        {
          "internalType": "address",
          "name": "account",
          "type": "address"
        }
      ],
      "name": "grantRole",
      "outputs": [],
      "stateMutability": "nonpayable",
      "type": "function"
    },
    {
      "inputs": [
        {
          "internalType": "bytes32",
          "name": "role",
          "type": "bytes32"
        },
        {
          "internalType": "address",
          "name": "account",
          "type": "address"
        }
      ],
      "name": "hasRole",
      "outputs": [
        {
          "internalType": "bool",
          "name": "",
          "type": "bool"
        }
      ],
      "stateMutability": "view",
      "type": "function"
    },
    {
      "inputs": [
        {
          "internalType": "bytes32",
          "name": "role",
          "type": "bytes32"
        },
        {
          "internalType": "address",
          "name": "account",
          "type": "address"
        }
      ],
      "name": "renounceRole",
      "outputs": [],
      "stateMutability": "nonpayable",
      "type": "function"
    },
    {
      "inputs": [
        {
          "internalType": "bytes32",
          "name": "role",
          "type": "bytes32"
        },
        {
          "internalType": "address",
          "name": "account",
          "type": "address"
        }
      ],
      "name": "revokeRole",
      "outputs": [],
      "stateMutability": "nonpayable",
      "type": "function"
    },
    {
      "inputs": [
        {
          "internalType": "bytes4",
          "name": "interfaceId",
          "type": "bytes4"
        }
      ],
      "name": "supportsInterface",
      "outputs": [
        {
          "internalType": "bool",
          "name": "",
          "type": "bool"
        }
      ],
      "stateMutability": "view",
      "type": "function"
    }
  ],
  "transactionHash": "0x09ebd63efffbde9817d4f03af844b5ede8755d0296d2644318435b1924b0e8ba",
  "args": [
    "0xc3a20F9D15cfD2224038EcCC8186C216366c4BFd",
    "0x7156412dF929c3cdB82cCbf22716F7b1c84fB31A",
    "0xe8e2e445648564F9B57d7e4177aC327e57e3bD54"
  ],
  "solcInputHash": "d0877e66dc3b6c0226d2de951c37ba18",
  "bytecode": "0x608060405234801561001057600080fd5b50604051610cb0380380610cb083398101604081905261002f9161015e565b61003a600084610096565b6100647fdf8b4c520ffe197c5343c6f5aec59570151ef9a492f2c624fd45ddde6135ec42846100a4565b600180546001600160a01b039384166001600160a01b03199182161790915560028054929093169116179055506101a1565b6100a082826100a4565b5050565b6000828152602081815260408083206001600160a01b038516845290915290205460ff166100a0576000828152602081815260408083206001600160a01b03851684529091529020805460ff191660011790556100fe3390565b6001600160a01b0316816001600160a01b0316837f2f8788117e7eff1d82e926ec794901d17c78024a50270940304540a733656f0d60405160405180910390a45050565b80516001600160a01b038116811461015957600080fd5b919050565b60008060006060848603121561017357600080fd5b61017c84610142565b925061018a60208501610142565b915061019860408501610142565b90509250925092565b610b00806101b06000396000f3fe608060405234801561001057600080fd5b50600436106100b45760003560e01c806336568abe1161007157806336568abe146101625780637f7b0a79146101755780638d91b5a9146101a057806391d14854146101b3578063a217fddf146101c6578063d547741f146101ce57600080fd5b806301ffc9a7146100b957806304b8c471146100e15780631cd965a7146100f6578063248a9ca3146101095780632a0acc6a1461013a5780632f2ff15d1461014f575b600080fd5b6100cc6100c7366004610861565b6101e1565b60405190151581526020015b60405180910390f35b6100f46100ef3660046108a7565b610218565b005b6100f46101043660046108c2565b610264565b61012c6101173660046108c2565b60009081526020819052604090206001015490565b6040519081526020016100d8565b61012c600080516020610aab83398151915281565b6100f461015d3660046108db565b61046b565b6100f46101703660046108db565b610495565b600154610188906001600160a01b031681565b6040516001600160a01b0390911681526020016100d8565b600254610188906001600160a01b031681565b6100cc6101c13660046108db565b61050f565b61012c600081565b6100f46101dc3660046108db565b610538565b60006001600160e01b03198216637965db0b60e01b148061021257506301ffc9a760e01b6001600160e01b03198316145b92915050565b600080516020610aab8339815191526102308161055d565b610248600080516020610aab8339815191528361056a565b610260600080516020610aab833981519152336105ee565b5050565b6002546040516370a0823160e01b815230600482015282916001600160a01b0316906370a0823190602401602060405180830381865afa1580156102ac573d6000803e3d6000fd5b505050506040513d601f19601f820116820180604052508101906102d09190610907565b10156103555760405162461bcd60e51b815260206004820152604360248201527f436f6e747261637420646f6573206e6f74206861766520656e6f75676820746f60448201527f6b656e20666f7220746869732061697264726f702c20636f6e7461637420616460648201526236b4b760e91b608482015260a4015b60405180910390fd5b60015460405163079cc67960e41b8152336004820152602481018390526001600160a01b03909116906379cc679090604401600060405180830381600087803b1580156103a157600080fd5b505af11580156103b5573d6000803e3d6000fd5b505060025460405163a9059cbb60e01b8152336004820152602481018590526001600160a01b03909116925063a9059cbb91506044016020604051808303816000875af115801561040a573d6000803e3d6000fd5b505050506040513d601f19601f8201168201806040525081019061042e9190610920565b5060408051338152602081018390527fe02fc9033b70e0164337df14b7cd23d1a181be369e604934f687758c978ef3c4910160405180910390a150565b6000828152602081905260409020600101546104868161055d565b610490838361056a565b505050565b6001600160a01b03811633146105055760405162461bcd60e51b815260206004820152602f60248201527f416363657373436f6e74726f6c3a2063616e206f6e6c792072656e6f756e636560448201526e103937b632b9903337b91039b2b63360891b606482015260840161034c565b61026082826105ee565b6000918252602082815260408084206001600160a01b0393909316845291905290205460ff1690565b6000828152602081905260409020600101546105538161055d565b61049083836105ee565b6105678133610653565b50565b610574828261050f565b610260576000828152602081815260408083206001600160a01b03851684529091529020805460ff191660011790556105aa3390565b6001600160a01b0316816001600160a01b0316837f2f8788117e7eff1d82e926ec794901d17c78024a50270940304540a733656f0d60405160405180910390a45050565b6105f8828261050f565b15610260576000828152602081815260408083206001600160a01b0385168085529252808320805460ff1916905551339285917ff6391f5c32d9c69d2a47ea670b442974b53935d1edc7fd64eb21e047a839171b9190a45050565b61065d828261050f565b6102605761066a816106ac565b6106758360206106be565b604051602001610686929190610972565b60408051601f198184030181529082905262461bcd60e51b825261034c916004016109e7565b60606102126001600160a01b03831660145b606060006106cd836002610a30565b6106d8906002610a4f565b67ffffffffffffffff8111156106f0576106f0610a67565b6040519080825280601f01601f19166020018201604052801561071a576020820181803683370190505b509050600360fc1b8160008151811061073557610735610a7d565b60200101906001600160f81b031916908160001a905350600f60fb1b8160018151811061076457610764610a7d565b60200101906001600160f81b031916908160001a9053506000610788846002610a30565b610793906001610a4f565b90505b600181111561080b576f181899199a1a9b1b9c1cb0b131b232b360811b85600f16601081106107c7576107c7610a7d565b1a60f81b8282815181106107dd576107dd610a7d565b60200101906001600160f81b031916908160001a90535060049490941c9361080481610a93565b9050610796565b50831561085a5760405162461bcd60e51b815260206004820181905260248201527f537472696e67733a20686578206c656e67746820696e73756666696369656e74604482015260640161034c565b9392505050565b60006020828403121561087357600080fd5b81356001600160e01b03198116811461085a57600080fd5b80356001600160a01b03811681146108a257600080fd5b919050565b6000602082840312156108b957600080fd5b61085a8261088b565b6000602082840312156108d457600080fd5b5035919050565b600080604083850312156108ee57600080fd5b823591506108fe6020840161088b565b90509250929050565b60006020828403121561091957600080fd5b5051919050565b60006020828403121561093257600080fd5b8151801515811461085a57600080fd5b60005b8381101561095d578181015183820152602001610945565b8381111561096c576000848401525b50505050565b7f416363657373436f6e74726f6c3a206163636f756e74200000000000000000008152600083516109aa816017850160208801610942565b7001034b99036b4b9b9b4b733903937b6329607d1b60179184019182015283516109db816028840160208801610942565b01602801949350505050565b6020815260008251806020840152610a06816040850160208701610942565b601f01601f19169190910160400192915050565b634e487b7160e01b600052601160045260246000fd5b6000816000190483118215151615610a4a57610a4a610a1a565b500290565b60008219821115610a6257610a62610a1a565b500190565b634e487b7160e01b600052604160045260246000fd5b634e487b7160e01b600052603260045260246000fd5b600081610aa257610aa2610a1a565b50600019019056fedf8b4c520ffe197c5343c6f5aec59570151ef9a492f2c624fd45ddde6135ec42a2646970667358221220298e2f25c1d192ad6a464b306ccc5343917f19a3abb87e30ae4209bfbac397b264736f6c634300080a0033",
  "devdoc": {
    "kind": "dev",
    "methods": {
      "getRoleAdmin(bytes32)": {
        "details": "Returns the admin role that controls `role`. See {grantRole} and {revokeRole}. To change a role's admin, use {_setRoleAdmin}."
      },
      "grantRole(bytes32,address)": {
        "details": "Grants `role` to `account`. If `account` had not been already granted `role`, emits a {RoleGranted} event. Requirements: - the caller must have ``role``'s admin role. May emit a {RoleGranted} event."
      },
      "hasRole(bytes32,address)": {
        "details": "Returns `true` if `account` has been granted `role`."
      },
      "renounceRole(bytes32,address)": {
        "details": "Revokes `role` from the calling account. Roles are often managed via {grantRole} and {revokeRole}: this function's purpose is to provide a mechanism for accounts to lose their privileges if they are compromised (such as when a trusted device is misplaced). If the calling account had been revoked `role`, emits a {RoleRevoked} event. Requirements: - the caller must be `account`. May emit a {RoleRevoked} event."
      },
      "revokeRole(bytes32,address)": {
        "details": "Revokes `role` from `account`. If `account` had been granted `role`, emits a {RoleRevoked} event. Requirements: - the caller must have ``role``'s admin role. May emit a {RoleRevoked} event."
      },
      "supportsInterface(bytes4)": {
        "details": "See {IERC165-supportsInterface}."
      }
    },
    "version": 1
  },
  "userdoc": {
    "kind": "user",
    "methods": {},
    "version": 1
  },
  "storageLayout": {
    "storage": [
      {
        "astId": 24,
        "contract": "contracts/AirdropCarbonv2.sol:AirdropCarbonv2",
        "label": "_roles",
        "offset": 0,
        "slot": "0",
        "type": "t_mapping(t_bytes32,t_struct(RoleData)19_storage)"
      },
      {
        "astId": 1627,
        "contract": "contracts/AirdropCarbonv2.sol:AirdropCarbonv2",
        "label": "carboV1Addr",
        "offset": 0,
        "slot": "1",
        "type": "t_address"
      },
      {
        "astId": 1629,
        "contract": "contracts/AirdropCarbonv2.sol:AirdropCarbonv2",
        "label": "carboV2Addr",
        "offset": 0,
        "slot": "2",
        "type": "t_address"
      }
    ],
    "types": {
      "t_address": {
        "encoding": "inplace",
        "label": "address",
        "numberOfBytes": "20"
      },
      "t_bool": {
        "encoding": "inplace",
        "label": "bool",
        "numberOfBytes": "1"
      },
      "t_bytes32": {
        "encoding": "inplace",
        "label": "bytes32",
        "numberOfBytes": "32"
      },
      "t_mapping(t_address,t_bool)": {
        "encoding": "mapping",
        "key": "t_address",
        "label": "mapping(address => bool)",
        "numberOfBytes": "32",
        "value": "t_bool"
      },
      "t_mapping(t_bytes32,t_struct(RoleData)19_storage)": {
        "encoding": "mapping",
        "key": "t_bytes32",
        "label": "mapping(bytes32 => struct AccessControl.RoleData)",
        "numberOfBytes": "32",
        "value": "t_struct(RoleData)19_storage"
      },
      "t_struct(RoleData)19_storage": {
        "encoding": "inplace",
        "label": "struct AccessControl.RoleData",
        "members": [
          {
            "astId": 16,
            "contract": "contracts/AirdropCarbonv2.sol:AirdropCarbonv2",
            "label": "members",
            "offset": 0,
            "slot": "0",
            "type": "t_mapping(t_address,t_bool)"
          },
          {
            "astId": 18,
            "contract": "contracts/AirdropCarbonv2.sol:AirdropCarbonv2",
            "label": "adminRole",
            "offset": 0,
            "slot": "1",
            "type": "t_bytes32"
          }
        ],
        "numberOfBytes": "64"
      }
    }
  }
}