{
  "address": "0x7156412dF929c3cdB82cCbf22716F7b1c84fB31A",
  "abi": [
    {
      "inputs": [],
      "stateMutability": "nonpayable",
      "type": "constructor"
    },
    {
      "anonymous": false,
      "inputs": [
        {
          "indexed": true,
          "internalType": "address",
          "name": "owner",
          "type": "address"
        },
        {
          "indexed": true,
          "internalType": "address",
          "name": "spender",
          "type": "address"
        },
        {
          "indexed": false,
          "internalType": "uint256",
          "name": "value",
          "type": "uint256"
        }
      ],
      "name": "Approval",
      "type": "event"
    },
    {
      "anonymous": false,
      "inputs": [
        {
          "indexed": false,
          "internalType": "uint256",
          "name": "rfi",
          "type": "uint256"
        },
        {
          "indexed": false,
          "internalType": "uint256",
          "name": "dividends",
          "type": "uint256"
        },
        {
          "indexed": false,
          "internalType": "uint256",
          "name": "buyback",
          "type": "uint256"
        },
        {
          "indexed": false,
          "internalType": "uint256",
          "name": "treasury",
          "type": "uint256"
        },
        {
          "indexed": false,
          "internalType": "uint256",
          "name": "liquidity",
          "type": "uint256"
        }
      ],
      "name": "FeeTaken",
      "type": "event"
    },
    {
      "anonymous": false,
      "inputs": [
        {
          "indexed": true,
          "internalType": "address",
          "name": "previousOwner",
          "type": "address"
        },
        {
          "indexed": true,
          "internalType": "address",
          "name": "newOwner",
          "type": "address"
        }
      ],
      "name": "OwnershipTransferred",
      "type": "event"
    },
    {
      "anonymous": false,
      "inputs": [
        {
          "indexed": false,
          "internalType": "address",
          "name": "account",
          "type": "address"
        }
      ],
      "name": "Paused",
      "type": "event"
    },
    {
      "anonymous": false,
      "inputs": [
        {
          "indexed": true,
          "internalType": "address",
          "name": "from",
          "type": "address"
        },
        {
          "indexed": true,
          "internalType": "address",
          "name": "to",
          "type": "address"
        },
        {
          "indexed": false,
          "internalType": "uint256",
          "name": "value",
          "type": "uint256"
        }
      ],
      "name": "Transfer",
      "type": "event"
    },
    {
      "anonymous": false,
      "inputs": [
        {
          "indexed": false,
          "internalType": "address",
          "name": "account",
          "type": "address"
        }
      ],
      "name": "Unpaused",
      "type": "event"
    },
    {
      "inputs": [
        {
          "internalType": "address",
          "name": "owner",
          "type": "address"
        },
        {
          "internalType": "address",
          "name": "spender",
          "type": "address"
        }
      ],
      "name": "allowance",
      "outputs": [
        {
          "internalType": "uint256",
          "name": "",
          "type": "uint256"
        }
      ],
      "stateMutability": "view",
      "type": "function"
    },
    {
      "inputs": [
        {
          "internalType": "address",
          "name": "spender",
          "type": "address"
        },
        {
          "internalType": "uint256",
          "name": "amount",
          "type": "uint256"
        }
      ],
      "name": "approve",
      "outputs": [
        {
          "internalType": "bool",
          "name": "",
          "type": "bool"
        }
      ],
      "stateMutability": "nonpayable",
      "type": "function"
    },
    {
      "inputs": [
        {
          "internalType": "address",
          "name": "account",
          "type": "address"
        }
      ],
      "name": "balanceOf",
      "outputs": [
        {
          "internalType": "uint256",
          "name": "",
          "type": "uint256"
        }
      ],
      "stateMutability": "view",
      "type": "function"
    },
    {
      "inputs": [
        {
          "internalType": "uint256",
          "name": "amount",
          "type": "uint256"
        }
      ],
      "name": "burn",
      "outputs": [],
      "stateMutability": "nonpayable",
      "type": "function"
    },
    {
      "inputs": [
        {
          "internalType": "address",
          "name": "account",
          "type": "address"
        },
        {
          "internalType": "uint256",
          "name": "amount",
          "type": "uint256"
        }
      ],
      "name": "burnFrom",
      "outputs": [],
      "stateMutability": "nonpayable",
      "type": "function"
    },
    {
      "inputs": [],
      "name": "callback",
      "outputs": [
        {
          "internalType": "contract ICallbackContract",
          "name": "",
          "type": "address"
        }
      ],
      "stateMutability": "view",
      "type": "function"
    },
    {
      "inputs": [],
      "name": "decimals",
      "outputs": [
        {
          "internalType": "uint8",
          "name": "",
          "type": "uint8"
        }
      ],
      "stateMutability": "pure",
      "type": "function"
    },
    {
      "inputs": [
        {
          "internalType": "address",
          "name": "spender",
          "type": "address"
        },
        {
          "internalType": "uint256",
          "name": "subtractedValue",
          "type": "uint256"
        }
      ],
      "name": "decreaseAllowance",
      "outputs": [
        {
          "internalType": "bool",
          "name": "",
          "type": "bool"
        }
      ],
      "stateMutability": "nonpayable",
      "type": "function"
    },
    {
      "inputs": [
        {
          "internalType": "address",
          "name": "account",
          "type": "address"
        }
      ],
      "name": "excludeFromRFI",
      "outputs": [],
      "stateMutability": "nonpayable",
      "type": "function"
    },
    {
      "inputs": [
        {
          "internalType": "enum ICarboToken.FeeType",
          "name": "feeType",
          "type": "uint8"
        }
      ],
      "name": "getFeeAddresses",
      "outputs": [
        {
          "components": [
            {
              "internalType": "address",
              "name": "dividends",
              "type": "address"
            },
            {
              "internalType": "address",
              "name": "buyback",
              "type": "address"
            },
            {
              "internalType": "address",
              "name": "treasury",
              "type": "address"
            },
            {
              "internalType": "address",
              "name": "liquidity",
              "type": "address"
            }
          ],
          "internalType": "struct ICarboToken.FeeAddresses",
          "name": "",
          "type": "tuple"
        }
      ],
      "stateMutability": "view",
      "type": "function"
    },
    {
      "inputs": [
        {
          "internalType": "enum ICarboToken.FeeType",
          "name": "feeType",
          "type": "uint8"
        }
      ],
      "name": "getFees",
      "outputs": [
        {
          "components": [
            {
              "internalType": "uint256",
              "name": "rfi",
              "type": "uint256"
            },
            {
              "internalType": "uint256",
              "name": "dividends",
              "type": "uint256"
            },
            {
              "internalType": "uint256",
              "name": "buyback",
              "type": "uint256"
            },
            {
              "internalType": "uint256",
              "name": "treasury",
              "type": "uint256"
            },
            {
              "internalType": "uint256",
              "name": "liquidity",
              "type": "uint256"
            }
          ],
          "internalType": "struct ICarboToken.Fees",
          "name": "",
          "type": "tuple"
        }
      ],
      "stateMutability": "view",
      "type": "function"
    },
    {
      "inputs": [
        {
          "internalType": "address",
          "name": "account",
          "type": "address"
        }
      ],
      "name": "getROwned",
      "outputs": [
        {
          "internalType": "uint256",
          "name": "",
          "type": "uint256"
        }
      ],
      "stateMutability": "view",
      "type": "function"
    },
    {
      "inputs": [],
      "name": "getRTotal",
      "outputs": [
        {
          "internalType": "uint256",
          "name": "",
          "type": "uint256"
        }
      ],
      "stateMutability": "view",
      "type": "function"
    },
    {
      "inputs": [
        {
          "internalType": "address",
          "name": "account",
          "type": "address"
        }
      ],
      "name": "includeInRFI",
      "outputs": [],
      "stateMutability": "nonpayable",
      "type": "function"
    },
    {
      "inputs": [
        {
          "internalType": "address",
          "name": "spender",
          "type": "address"
        },
        {
          "internalType": "uint256",
          "name": "addedValue",
          "type": "uint256"
        }
      ],
      "name": "increaseAllowance",
      "outputs": [
        {
          "internalType": "bool",
          "name": "",
          "type": "bool"
        }
      ],
      "stateMutability": "nonpayable",
      "type": "function"
    },
    {
      "inputs": [],
      "name": "name",
      "outputs": [
        {
          "internalType": "string",
          "name": "",
          "type": "string"
        }
      ],
      "stateMutability": "view",
      "type": "function"
    },
    {
      "inputs": [],
      "name": "owner",
      "outputs": [
        {
          "internalType": "address",
          "name": "",
          "type": "address"
        }
      ],
      "stateMutability": "view",
      "type": "function"
    },
    {
      "inputs": [],
      "name": "pause",
      "outputs": [],
      "stateMutability": "nonpayable",
      "type": "function"
    },
    {
      "inputs": [],
      "name": "paused",
      "outputs": [
        {
          "internalType": "bool",
          "name": "",
          "type": "bool"
        }
      ],
      "stateMutability": "view",
      "type": "function"
    },
    {
      "inputs": [
        {
          "internalType": "uint256",
          "name": "tAmount",
          "type": "uint256"
        }
      ],
      "name": "reflect",
      "outputs": [],
      "stateMutability": "nonpayable",
      "type": "function"
    },
    {
      "inputs": [
        {
          "internalType": "uint256",
          "name": "tAmount",
          "type": "uint256"
        }
      ],
      "name": "reflectionFromToken",
      "outputs": [
        {
          "internalType": "uint256",
          "name": "",
          "type": "uint256"
        }
      ],
      "stateMutability": "view",
      "type": "function"
    },
    {
      "inputs": [],
      "name": "renounceOwnership",
      "outputs": [],
      "stateMutability": "nonpayable",
      "type": "function"
    },
    {
      "inputs": [
        {
          "internalType": "address",
          "name": "recipient",
          "type": "address"
        },
        {
          "internalType": "address",
          "name": "tokenAddress",
          "type": "address"
        }
      ],
      "name": "retrieveTokens",
      "outputs": [],
      "stateMutability": "nonpayable",
      "type": "function"
    },
    {
      "inputs": [
        {
          "internalType": "address payable",
          "name": "recipient",
          "type": "address"
        }
      ],
      "name": "retriveETH",
      "outputs": [],
      "stateMutability": "nonpayable",
      "type": "function"
    },
    {
      "inputs": [
        {
          "internalType": "address",
          "name": "_callback",
          "type": "address"
        }
      ],
      "name": "setCallbackContract",
      "outputs": [],
      "stateMutability": "nonpayable",
      "type": "function"
    },
    {
      "inputs": [
        {
          "internalType": "enum WithCallback.CallbackType",
          "name": "callbackFunction",
          "type": "uint8"
        },
        {
          "internalType": "bool",
          "name": "isActive",
          "type": "bool"
        }
      ],
      "name": "setCallbackFunction",
      "outputs": [],
      "stateMutability": "nonpayable",
      "type": "function"
    },
    {
      "inputs": [
        {
          "internalType": "enum ICarboToken.FeeType",
          "name": "feeType",
          "type": "uint8"
        },
        {
          "internalType": "address",
          "name": "dividends",
          "type": "address"
        },
        {
          "internalType": "address",
          "name": "buyback",
          "type": "address"
        },
        {
          "internalType": "address",
          "name": "treasury",
          "type": "address"
        },
        {
          "internalType": "address",
          "name": "liquidity",
          "type": "address"
        }
      ],
      "name": "setFeeAddresses",
      "outputs": [],
      "stateMutability": "nonpayable",
      "type": "function"
    },
    {
      "inputs": [
        {
          "internalType": "enum ICarboToken.FeeType",
          "name": "feeType",
          "type": "uint8"
        },
        {
          "internalType": "uint256",
          "name": "rfi",
          "type": "uint256"
        },
        {
          "internalType": "uint256",
          "name": "dividends",
          "type": "uint256"
        },
        {
          "internalType": "uint256",
          "name": "buyback",
          "type": "uint256"
        },
        {
          "internalType": "uint256",
          "name": "treasury",
          "type": "uint256"
        },
        {
          "internalType": "uint256",
          "name": "liquidity",
          "type": "uint256"
        }
      ],
      "name": "setFees",
      "outputs": [],
      "stateMutability": "nonpayable",
      "type": "function"
    },
    {
      "inputs": [
        {
          "internalType": "address",
          "name": "account",
          "type": "address"
        },
        {
          "internalType": "bool",
          "name": "value",
          "type": "bool"
        }
      ],
      "name": "setTaxExempt",
      "outputs": [],
      "stateMutability": "nonpayable",
      "type": "function"
    },
    {
      "inputs": [
        {
          "internalType": "address",
          "name": "account",
          "type": "address"
        },
        {
          "internalType": "bool",
          "name": "value",
          "type": "bool"
        }
      ],
      "name": "setTaxable",
      "outputs": [],
      "stateMutability": "nonpayable",
      "type": "function"
    },
    {
      "inputs": [],
      "name": "symbol",
      "outputs": [
        {
          "internalType": "string",
          "name": "",
          "type": "string"
        }
      ],
      "stateMutability": "view",
      "type": "function"
    },
    {
      "inputs": [
        {
          "internalType": "uint256",
          "name": "rAmount",
          "type": "uint256"
        }
      ],
      "name": "tokenFromReflection",
      "outputs": [
        {
          "internalType": "uint256",
          "name": "",
          "type": "uint256"
        }
      ],
      "stateMutability": "view",
      "type": "function"
    },
    {
      "inputs": [],
      "name": "totalSupply",
      "outputs": [
        {
          "internalType": "uint256",
          "name": "",
          "type": "uint256"
        }
      ],
      "stateMutability": "view",
      "type": "function"
    },
    {
      "inputs": [
        {
          "internalType": "address",
          "name": "recipient",
          "type": "address"
        },
        {
          "internalType": "uint256",
          "name": "amount",
          "type": "uint256"
        }
      ],
      "name": "transfer",
      "outputs": [
        {
          "internalType": "bool",
          "name": "",
          "type": "bool"
        }
      ],
      "stateMutability": "nonpayable",
      "type": "function"
    },
    {
      "inputs": [
        {
          "internalType": "address",
          "name": "sender",
          "type": "address"
        },
        {
          "internalType": "address",
          "name": "recipient",
          "type": "address"
        },
        {
          "internalType": "uint256",
          "name": "amount",
          "type": "uint256"
        }
      ],
      "name": "transferFrom",
      "outputs": [
        {
          "internalType": "bool",
          "name": "",
          "type": "bool"
        }
      ],
      "stateMutability": "nonpayable",
      "type": "function"
    },
    {
      "inputs": [
        {
          "internalType": "address",
          "name": "newOwner",
          "type": "address"
        }
      ],
      "name": "transferOwnership",
      "outputs": [],
      "stateMutability": "nonpayable",
      "type": "function"
    },
    {
      "inputs": [],
      "name": "unpause",
      "outputs": [],
      "stateMutability": "nonpayable",
      "type": "function"
    }
  ],
  "transactionHash": "0x0219786956f0e13e9e111c133c82af75ef7a3da76873e7f3105d9565fcd82e82",
  "args": [],
  "solcInputHash": "02e4a29bfd2480dae87c85e2856a38fe",
  "bytecode": "0x60c0604052600b60808190526a21a622a0a721a0a92127a760a91b60a09081526200002e916004919062000156565b5060408051808201909152600580825264434152424f60d81b60209092019182526200005b918162000156565b506b019d971e4fe8401e74000000600e8190556200007c90600019620001fc565b6200008a906000196200021f565b600f553480156200009a57600080fd5b50620000a63362000106565b6000805460ff60a01b19168155600f543380835260116020908152604080852093909355600e5492519283529092917fddf252ad1be2c89b69c2b068fc378daa952ba7f163c4a11628f55a4df523b3ef910160405180910390a362000282565b600080546001600160a01b038381166001600160a01b0319831681178455604051919092169283917f8be0079c531659141344cd1fd0a4f28419497f9722a3daafe3b4186f6b6457e09190a35050565b828054620001649062000245565b90600052602060002090601f016020900481019282620001885760008555620001d3565b82601f10620001a357805160ff1916838001178555620001d3565b82800160010185558215620001d3579182015b82811115620001d3578251825591602001919060010190620001b6565b50620001e1929150620001e5565b5090565b5b80821115620001e15760008155600101620001e6565b6000826200021a57634e487b7160e01b600052601260045260246000fd5b500690565b6000828210156200024057634e487b7160e01b600052601160045260246000fd5b500390565b600181811c908216806200025a57607f821691505b602082108114156200027c57634e487b7160e01b600052602260045260246000fd5b50919050565b612c2180620002926000396000f3fe608060405234801561001057600080fd5b50600436106102275760003560e01c80636341ca0b116101305780638da5cb5b116100b8578063a9059cbb1161007c578063a9059cbb1461051d578063cf7a9bd514610530578063dd62ed3e14610543578063f2fde38b1461057c578063f4cd43821461058f57600080fd5b80638da5cb5b146104465780638e3c37601461045757806395d89b41146104ac578063a457c2d7146104b4578063a6844412146104c757600080fd5b8063715018a6116100ff578063715018a6146103fd57806379cc6790146104055780637a35aaa914610418578063836cf5d41461042b5780638456cb591461043e57600080fd5b80636341ca0b146103b15780636473b1eb146103c45780636c8df549146103d757806370a08231146103ea57600080fd5b806323b872dd116101b35780633950935111610182578063395093511461035e5780633f4ba83a1461037157806342966c681461037957806354bc089f1461038c5780635c975abb1461039f57600080fd5b806323b872dd146103165780632d6c2631146103295780632d8381191461033c578063313ce5671461034f57600080fd5b8063087fae14116101fa578063087fae141461029c578063095ea7b3146102c55780631392c086146102e857806318160ddd146102fb5780631dc610401461030357600080fd5b8063053ab1821461022c57806306fdde0314610241578063075d1d611461025f578063083b273214610271575b600080fd5b61023f61023a3660046127ea565b6105a2565b005b610249610667565b6040516102569190612803565b60405180910390f35b600f545b604051908152602001610256565b600154610284906001600160a01b031681565b6040516001600160a01b039091168152602001610256565b6102636102aa36600461286d565b6001600160a01b031660009081526011602052604090205490565b6102d86102d336600461288a565b6106f9565b6040519015158152602001610256565b6102636102f63660046127ea565b610710565b600e54610263565b61023f6103113660046128c4565b610784565b6102d86103243660046128fd565b610820565b61023f61033736600461286d565b6108ca565b61026361034a3660046127ea565b610a6f565b60405160128152602001610256565b6102d861036c36600461288a565b610aff565b61023f610b3b565b61023f6103873660046127ea565b610b4d565b61023f61039a36600461286d565b610b5a565b600054600160a01b900460ff166102d8565b61023f6103bf36600461293e565b610c9b565b61023f6103d236600461286d565b610d8c565b61023f6103e53660046128c4565b610dc9565b6102636103f836600461286d565b610e65565b61023f610ec4565b61023f61041336600461288a565b610ed6565b61023f61042636600461286d565b610f6d565b61023f61043936600461296c565b610f97565b61023f611078565b6000546001600160a01b0316610284565b61046a6104653660046129a2565b611088565b6040516102569190600060a082019050825182526020830151602083015260408301516040830152606083015160608301526080830151608083015292915050565b610249611133565b6102d86104c236600461288a565b611142565b6104da6104d53660046129a2565b6111db565b604051610256919081516001600160a01b039081168252602080840151821690830152604080840151821690830152606092830151169181019190915260800190565b6102d861052b36600461288a565b61127e565b61023f61053e3660046129bd565b61128b565b61026361055136600461293e565b6001600160a01b03918216600090815260036020908152604080832093909416825291909152205490565b61023f61058a36600461286d565b611385565b61023f61059d366004612a07565b6113fb565b3360008181526013602052604090205460ff161561062d5760405162461bcd60e51b815260206004820152603860248201527f436172626f546f6b656e3a206578636c7564656420616464726573736573206360448201527f616e6e6f742063616c6c20746869732066756e6374696f6e000000000000000060648201526084015b60405180910390fd5b60006106408361063b611547565b61156a565b905061064d828483611576565b610657838261160e565b610662828483611640565b505050565b60606004805461067690612a76565b80601f01602080910402602001604051908101604052809291908181526020018280546106a290612a76565b80156106ef5780601f106106c4576101008083540402835291602001916106ef565b820191906000526020600020905b8154815290600101906020018083116106d257829003601f168201915b5050505050905090565b60006107063384846116dc565b5060015b92915050565b6000600e548211156107785760405162461bcd60e51b815260206004820152602b60248201527f436172626f546f6b656e3a20616d6f756e74206d757374206265206c6573732060448201526a7468616e20737570706c7960a81b6064820152608401610624565b61070a8261063b611547565b61078c611800565b6001600160a01b0382166000908152600d602052604090205460ff16151581151514156107f55760405162461bcd60e51b815260206004820152601760248201527610d85c989bd51bdad95b8e88185b1c9958591e481cd95d604a1b6044820152606401610624565b6001600160a01b03919091166000908152600d60205260409020805460ff1916911515919091179055565b600061082d84848461185a565b6001600160a01b0384166000908152600360209081526040808320338452909152902054828110156108b25760405162461bcd60e51b815260206004820152602860248201527f45524332303a207472616e7366657220616d6f756e74206578636565647320616044820152676c6c6f77616e636560c01b6064820152608401610624565b6108bf85338584036116dc565b506001949350505050565b6108d2611800565b6001600160a01b03811660009081526013602052604090205460ff1661094a5760405162461bcd60e51b815260206004820152602760248201527f436172626f546f6b656e3a206163636f756e7420697320616c726561647920696044820152661b98db1d59195960ca1b6064820152608401610624565b60005b601454811015610a6b57816001600160a01b03166014828154811061097457610974612ab1565b6000918252602090912001546001600160a01b03161415610a59576014805461099f90600190612add565b815481106109af576109af612ab1565b600091825260209091200154601480546001600160a01b0390921691839081106109db576109db612ab1565b600091825260208083209190910180546001600160a01b0319166001600160a01b039485161790559184168152601282526040808220829055601390925220805460ff191690556014805480610a3357610a33612af4565b600082815260209020810160001990810180546001600160a01b03191690550190555050565b80610a6381612b0a565b91505061094d565b5050565b6000600f54821115610ae25760405162461bcd60e51b815260206004820152603660248201527f436172626f546f6b656e3a20616d6f756e74206d757374206265206c657373206044820152757468616e20746f74616c207265666c656374696f6e7360501b6064820152608401610624565b6000610aec611547565b9050610af88382611b87565b9392505050565b3360008181526003602090815260408083206001600160a01b03871684529091528120549091610706918590610b36908690612b25565b6116dc565b610b43611800565b610b4b611b93565b565b610b573382611be8565b50565b610b62611800565b6001600160a01b03811660009081526013602052604090205460ff1615610bdb5760405162461bcd60e51b815260206004820152602760248201527f436172626f546f6b656e3a206163636f756e7420697320616c726561647920656044820152661e18db1d59195960ca1b6064820152608401610624565b6001600160a01b03811660009081526011602052604090205415610c35576001600160a01b038116600090815260116020526040902054610c1b90610a6f565b6001600160a01b0382166000908152601260205260409020555b6001600160a01b03166000818152601360205260408120805460ff191660019081179091556014805491820181559091527fce6d7b5282bd9a3661ae061feed1dbda4e52ab073b1f9285be6e155d9c38d4ec0180546001600160a01b0319169091179055565b610ca3611800565b6040516370a0823160e01b815230600482015281906001600160a01b0382169063a9059cbb90859083906370a0823190602401602060405180830381865afa158015610cf3573d6000803e3d6000fd5b505050506040513d601f19601f82011682018060405250810190610d179190612b3d565b6040516001600160e01b031960e085901b1681526001600160a01b03909216600483015260248201526044016020604051808303816000875af1158015610d62573d6000803e3d6000fd5b505050506040513d601f19601f82011682018060405250810190610d869190612b56565b50505050565b610d94611800565b6040516001600160a01b038216904780156108fc02916000818181858888f19350505050158015610a6b573d6000803e3d6000fd5b610dd1611800565b6001600160a01b0382166000908152600c602052604090205460ff1615158115151415610e3a5760405162461bcd60e51b815260206004820152601760248201527610d85c989bd51bdad95b8e88185b1c9958591e481cd95d604a1b6044820152606401610624565b6001600160a01b03919091166000908152600c60205260409020805460ff1916911515919091179055565b6001600160a01b03811660009081526013602052604081205460ff1615610ea257506001600160a01b031660009081526012602052604090205490565b6001600160a01b03821660009081526011602052604090205461070a90610a6f565b610ecc611800565b610b4b6000611d35565b6001600160a01b038216600090815260036020908152604080832033845290915290205481811015610f565760405162461bcd60e51b8152602060048201526024808201527f45524332303a206275726e20616d6f756e74206578636565647320616c6c6f77604482015263616e636560e01b6064820152608401610624565b610f6383338484036116dc565b6106628383611be8565b610f75611800565b600180546001600160a01b0319166001600160a01b0392909216919091179055565b610f9f611800565b80151560026000846006811115610fb857610fb8612b73565b6006811115610fc957610fc9612b73565b815260208101919091526040016000205460ff161515141561102d5760405162461bcd60e51b815260206004820152601960248201527f5769746843616c6c6261636b3a20616c726561647920736574000000000000006044820152606401610624565b806002600084600681111561104457611044612b73565b600681111561105557611055612b73565b81526020810191909152604001600020805460ff19169115159190911790555050565b611080611800565b610b4b611d85565b6110ba6040518060a0016040528060008152602001600081526020016000815260200160008152602001600081525090565b600660008360028111156110d0576110d0612b73565b60028111156110e1576110e1612b73565b81526020019081526020016000206040518060a0016040529081600082015481526020016001820154815260200160028201548152602001600382015481526020016004820154815250509050919050565b60606005805461067690612a76565b3360009081526003602090815260408083206001600160a01b0386168452909152812054828110156111c45760405162461bcd60e51b815260206004820152602560248201527f45524332303a2064656372656173656420616c6c6f77616e63652062656c6f77604482015264207a65726f60d81b6064820152608401610624565b6111d133858584036116dc565b5060019392505050565b6040805160808101825260008082526020820181905291810182905260608101919091526007600083600281111561121557611215612b73565b600281111561122657611226612b73565b81526020808201929092526040908101600020815160808101835281546001600160a01b0390811682526001830154811694820194909452600282015484169281019290925260030154909116606082015292915050565b600061070633848461185a565b611293611800565b60028660028111156112a7576112a7612b73565b14156112f15760405162461bcd60e51b8152602060048201526019602482015278436172626f546f6b656e3a2057726f6e67204665655479706560381b6044820152606401610624565b6040518060a00160405280868152602001858152602001848152602001838152602001828152506006600088600281111561132e5761132e612b73565b600281111561133f5761133f612b73565b8152602080820192909252604090810160002083518155918301516001830155820151600282015560608201516003820155608090910151600490910155505050505050565b61138d611800565b6001600160a01b0381166113f25760405162461bcd60e51b815260206004820152602660248201527f4f776e61626c653a206e6577206f776e657220697320746865207a65726f206160448201526564647265737360d01b6064820152608401610624565b610b5781611d35565b611403611800565b600285600281111561141757611417612b73565b14156114615760405162461bcd60e51b8152602060048201526019602482015278436172626f546f6b656e3a2057726f6e67204665655479706560381b6044820152606401610624565b6040518060800160405280856001600160a01b03168152602001846001600160a01b03168152602001836001600160a01b03168152602001826001600160a01b0316815250600760008760028111156114bc576114bc612b73565b60028111156114cd576114cd612b73565b81526020808201929092526040908101600020835181546001600160a01b03199081166001600160a01b039283161783559385015160018301805486169183169190911790559184015160028201805485169184169190911790556060909301516003909301805490921692169190911790555050505050565b6000806000611554611dc8565b90925090506115638282611b87565b9250505090565b6000610af88383611f4a565b6001600160a01b0383166000908152601160205260409020546115999082611f56565b6001600160a01b03841660009081526011602090815260408083209390935560139052205460ff1615611603576001600160a01b0383166000908152601260205260409020546115e99083611f56565b6001600160a01b0384166000908152601260205260409020555b610662838383611f62565b611616611fca565b600f546116239082611f56565b600f556010546116339083612017565b601055610a6b8282612023565b600160005260026020527fe90b7bceb6e7df5418fb78d8ee546e97c83a08bbccc01a0644d599ccd2a7c2e05460ff1615610662576001546040516302107dc160e31b81526001600160a01b0390911690631083ee08906116a890869086908690600401612b89565b600060405180830381600087803b1580156116c257600080fd5b505af19250505080156116d3575060015b61066257505050565b6001600160a01b03831661173e5760405162461bcd60e51b8152602060048201526024808201527f45524332303a20617070726f76652066726f6d20746865207a65726f206164646044820152637265737360e01b6064820152608401610624565b6001600160a01b03821661179f5760405162461bcd60e51b815260206004820152602260248201527f45524332303a20617070726f766520746f20746865207a65726f206164647265604482015261737360f01b6064820152608401610624565b6001600160a01b0383811660008181526003602090815260408083209487168084529482529182902085905590518481527f8c5be1e5ebec7d5bd14f71427d1e84f3dd0314c0f7b2291e5b200ac8c7c3b925910160405180910390a3505050565b6000546001600160a01b03163314610b4b5760405162461bcd60e51b815260206004820181905260248201527f4f776e61626c653a2063616c6c6572206973206e6f7420746865206f776e65726044820152606401610624565b611862611fca565b6001600160a01b0383166118c65760405162461bcd60e51b815260206004820152602560248201527f45524332303a207472616e736665722066726f6d20746865207a65726f206164604482015264647265737360d81b6064820152608401610624565b6001600160a01b0382166119285760405162461bcd60e51b815260206004820152602360248201527f45524332303a207472616e7366657220746f20746865207a65726f206164647260448201526265737360e81b6064820152608401610624565b600061193484846120bd565b90506000806119438484612164565b81516001600160a01b03891660009081526011602052604090205492945090925011156119c15760405162461bcd60e51b815260206004820152602660248201527f45524332303a207472616e7366657220616d6f756e7420657863656564732062604482015265616c616e636560d01b6064820152608401610624565b805182516119d0918891611576565b6119e3858260200151846020015161219b565b846001600160a01b0316866001600160a01b03167fddf252ad1be2c89b69c2b068fc378daa952ba7f163c4a11628f55a4df523b3ef8360200151604051611a2c91815260200190565b60405180910390a36020810151815114611b61576000611a4b846111db565b604083015190915015611a6a57611a6a8260400151846040015161160e565b606082015115611a8b57611a8b81600001518360600151856060015161219b565b608082015115611aac57611aac81602001518360800151856080015161219b565b60a082015115611acd57611acd81604001518360a001518560a0015161219b565b60c082015115611aee57611aee81606001518360c001518560c0015161219b565b7ff390f6f7846b730a86e28d011121b78c8010a3d9a94b63084de21f1afe63c7fc8260400151836060015184608001518560a001518660c00151604051611b57959493929190948552602085019390935260408401919091526060830152608082015260a00190565b60405180910390a1505b611b7f86868360000151846020015186600001518760200151612233565b505050505050565b6000610af88284612baa565b611b9b6122ec565b6000805460ff60a01b191690557f5db9ee0a495bf2e6ff9c91a7834c1ba4fdd244a5e8aa4e537bd38aeae4b073aa335b6040516001600160a01b03909116815260200160405180910390a1565b611bf0611fca565b6001600160a01b038216611c505760405162461bcd60e51b815260206004820152602160248201527f45524332303a206275726e2066726f6d20746865207a65726f206164647265736044820152607360f81b6064820152608401610624565b6000611c5e8261063b611547565b6001600160a01b038416600090815260116020526040902054909150811115611cd45760405162461bcd60e51b815260206004820152602260248201527f45524332303a206275726e20616d6f756e7420657863656564732062616c616e604482015261636560f01b6064820152608401610624565b611cdf838383611576565b611ce9828261233c565b6040518281526000906001600160a01b038516907fddf252ad1be2c89b69c2b068fc378daa952ba7f163c4a11628f55a4df523b3ef9060200160405180910390a3610662838383612366565b600080546001600160a01b038381166001600160a01b0319831681178455604051919092169283917f8be0079c531659141344cd1fd0a4f28419497f9722a3daafe3b4186f6b6457e09190a35050565b611d8d611fca565b6000805460ff60a01b1916600160a01b1790557f62e78cea01bee320cd4e420270b5ea74000d11b0c9f74754ebdbfc544b05a258611bcb3390565b600f54600e546000918291825b601454811015611f1a57826011600060148481548110611df757611df7612ab1565b60009182526020808320909101546001600160a01b031683528201929092526040019020541180611e625750816012600060148481548110611e3b57611e3b612ab1565b60009182526020808320909101546001600160a01b03168352820192909252604001902054115b15611e7857600f54600e54945094505050509091565b611ebe6011600060148481548110611e9257611e92612ab1565b60009182526020808320909101546001600160a01b031683528201929092526040019020548490611f56565b9250611f066012600060148481548110611eda57611eda612ab1565b60009182526020808320909101546001600160a01b031683528201929092526040019020548390611f56565b915080611f1281612b0a565b915050611dd5565b50600e54600f54611f2a91611b87565b821015611f4157600f54600e549350935050509091565b90939092509050565b6000610af88284612bcc565b6000610af88284612add565b600360005260026020527f88601476d11616a71c5be67555bd1dff4b1cbf21533d2669b768b61518cfe1c35460ff161561066257600154604051630abc6e3360e01b81526001600160a01b0390911690630abc6e33906116a890869086908690600401612b89565b600054600160a01b900460ff1615610b4b5760405162461bcd60e51b815260206004820152601060248201526f14185d5cd8589b194e881c185d5cd95960821b6044820152606401610624565b6000610af88284612b25565b6000805260026020527fac33ff75c19e70fe83507db0d683fd3465c996598dc972688b7ace676c89077b5460ff1615610a6b5760015460405163285f806760e21b815260048101849052602481018390526001600160a01b039091169063a17e019c906044015b600060405180830381600087803b1580156120a457600080fd5b505af19250505080156120b5575060015b610a6b575050565b6001600160a01b0382166000908152600d602052604081205460ff16806120fc57506001600160a01b0382166000908152600d602052604090205460ff165b156121095750600261070a565b6001600160a01b0383166000908152600c602052604090205460ff16156121325750600061070a565b6001600160a01b0382166000908152600c602052604090205460ff161561215b5750600161070a565b50600292915050565b61216c6127ad565b6121746127ad565b61217e84846123ce565b9050612192818461218d611547565b612479565b91509250929050565b6001600160a01b0383166000908152601160205260409020546121be9082612017565b6001600160a01b03841660009081526011602090815260408083209390935560139052205460ff1615612228576001600160a01b03831660009081526012602052604090205461220e9083612017565b6001600160a01b0384166000908152601260205260409020555b610662838383612566565b600560005260026020527fb98b78633099fa36ed8b8680c4f8092689e1e04080eb9cbb077ca38a14d7e3845460ff1615611b7f5760015460405163addfb2df60e01b81526001600160a01b038881166004830152878116602483015260448201879052606482018690526084820185905260a482018490529091169063addfb2df9060c401600060405180830381600087803b1580156122d257600080fd5b505af19250505080156122e3575060015b611b7f57611b7f565b600054600160a01b900460ff16610b4b5760405162461bcd60e51b815260206004820152601460248201527314185d5cd8589b194e881b9bdd081c185d5cd95960621b6044820152606401610624565b600e546123499083611f56565b600e55600f546123599082611f56565b600f55610a6b82826125ce565b600660005260026020527f59dd4b18488d12f51eda69757a0ed42a2010c14b564330cc74a06895e60c077b5460ff1615610662576001546040516319fcd76b60e31b81526001600160a01b039091169063cfe6bb58906116a890869086908690600401612b89565b6123d66127ad565b6123de6127ad565b8381526020810184905260028360028111156123fc576123fc612b73565b14610af857600061240d858561263a565b8051604080850182905260208084015160608088018290529285015160808089018290529386015160a089018190529386015160c089018190529288015195965061246c95929461246694938593849290918391611f56565b90611f56565b6020830152509392505050565b6124816127ad565b6124896127ad565b8451612495908461156a565b808252602082015260028460028111156124b1576124b1612b73565b1461255e576124c485604001518461156a565b604082015260608501516124d8908461156a565b606082015260808501516124ec908461156a565b608082015260a0850151612500908461156a565b60a082015260c0850151612514908461156a565b8160c00181815250506125588160c001516124668360a001516124668560800151612466876060015161246689604001518a60200151611f5690919063ffffffff16565b60208201525b949350505050565b600260008190526020527f679795a0195a1b76cdebb7c51d74e058aee92919b8c3389af86ef24535e8a28c5460ff1615610662576001546040516389df074960e01b81526001600160a01b03909116906389df0749906116a890869086908690600401612b89565b600460005260026020527fee60d0579bcffd98e668647d59fec1ff86a7fb340ce572e844f234ae73a6918f5460ff1615610a6b5760015460405163490b729f60e11b815260048101849052602481018390526001600160a01b0390911690639216e53e9060440161208a565b61266c6040518060a0016040528060008152602001600081526020016000815260200160008152602001600081525090565b60006006600084600281111561268457612684612b73565b600281111561269557612695612b73565b81526020019081526020016000206040518060a00160405290816000820154815260200160018201548152602001600282015481526020016003820154815260200160048201548152505090506127146040518060a0016040528060008152602001600081526020016000815260200160008152602001600081525090565b815161272f906103e890612729908890611f4a565b90611b87565b81526020820151612749906103e890612729908890611f4a565b60208201526040820151612766906103e890612729908890611f4a565b60408201526060820151612783906103e890612729908890611f4a565b606082015260808201516127a0906103e890612729908890611f4a565b6080820152949350505050565b6040518060e00160405280600081526020016000815260200160008152602001600081526020016000815260200160008152602001600081525090565b6000602082840312156127fc57600080fd5b5035919050565b600060208083528351808285015260005b8181101561283057858101830151858201604001528201612814565b81811115612842576000604083870101525b50601f01601f1916929092016040019392505050565b6001600160a01b0381168114610b5757600080fd5b60006020828403121561287f57600080fd5b8135610af881612858565b6000806040838503121561289d57600080fd5b82356128a881612858565b946020939093013593505050565b8015158114610b5757600080fd5b600080604083850312156128d757600080fd5b82356128e281612858565b915060208301356128f2816128b6565b809150509250929050565b60008060006060848603121561291257600080fd5b833561291d81612858565b9250602084013561292d81612858565b929592945050506040919091013590565b6000806040838503121561295157600080fd5b823561295c81612858565b915060208301356128f281612858565b6000806040838503121561297f57600080fd5b8235600781106128e257600080fd5b80356003811061299d57600080fd5b919050565b6000602082840312156129b457600080fd5b610af88261298e565b60008060008060008060c087890312156129d657600080fd5b6129df8761298e565b9860208801359850604088013597606081013597506080810135965060a00135945092505050565b600080600080600060a08688031215612a1f57600080fd5b612a288661298e565b94506020860135612a3881612858565b93506040860135612a4881612858565b92506060860135612a5881612858565b91506080860135612a6881612858565b809150509295509295909350565b600181811c90821680612a8a57607f821691505b60208210811415612aab57634e487b7160e01b600052602260045260246000fd5b50919050565b634e487b7160e01b600052603260045260246000fd5b634e487b7160e01b600052601160045260246000fd5b600082821015612aef57612aef612ac7565b500390565b634e487b7160e01b600052603160045260246000fd5b6000600019821415612b1e57612b1e612ac7565b5060010190565b60008219821115612b3857612b38612ac7565b500190565b600060208284031215612b4f57600080fd5b5051919050565b600060208284031215612b6857600080fd5b8151610af8816128b6565b634e487b7160e01b600052602160045260246000fd5b6001600160a01b039390931683526020830191909152604082015260600190565b600082612bc757634e487b7160e01b600052601260045260246000fd5b500490565b6000816000190483118215151615612be657612be6612ac7565b50029056fea2646970667358221220f4f5e8bd91ac5b4f4ed45505dc41314450b15482e6ed4f152a3b28af1e162abf64736f6c634300080a0033",
  "devdoc": {
    "kind": "dev",
    "methods": {
      "allowance(address,address)": {
        "details": "Returns the remaining number of tokens that `spender` will be allowed to spend on behalf of `owner` through {transferFrom}. This is zero by default. This value changes when {approve} or {transferFrom} are called."
      },
      "approve(address,uint256)": {
        "details": "Sets `amount` as the allowance of `spender` over the caller's tokens. Returns a boolean value indicating whether the operation succeeded. IMPORTANT: Beware that changing an allowance with this method brings the risk that someone may use both the old and the new allowance by unfortunate transaction ordering. One possible solution to mitigate this race condition is to first reduce the spender's allowance to 0 and set the desired value afterwards: https://github.com/ethereum/EIPs/issues/20#issuecomment-263524729 Emits an {Approval} event."
      },
      "balanceOf(address)": {
        "details": "Returns the amount of tokens owned by `account`."
      },
      "owner()": {
        "details": "Returns the address of the current owner."
      },
      "paused()": {
        "details": "Returns true if the contract is paused, and false otherwise."
      },
      "renounceOwnership()": {
        "details": "Leaves the contract without owner. It will not be possible to call `onlyOwner` functions anymore. Can only be called by the current owner. NOTE: Renouncing ownership will leave the contract without an owner, thereby removing any functionality that is only available to the owner."
      },
      "totalSupply()": {
        "details": "Returns the amount of tokens in existence."
      },
      "transferOwnership(address)": {
        "details": "Transfers ownership of the contract to a new account (`newOwner`). Can only be called by the current owner."
      }
    },
    "version": 1
  },
  "userdoc": {
    "kind": "user",
    "methods": {},
    "version": 1
  },
  "storageLayout": {
    "storage": [
      {
        "astId": 396,
        "contract": "contracts/v1/CarboToken.sol:CarboToken",
        "label": "_owner",
        "offset": 0,
        "slot": "0",
        "type": "t_address"
      },
      {
        "astId": 519,
        "contract": "contracts/v1/CarboToken.sol:CarboToken",
        "label": "_paused",
        "offset": 20,
        "slot": "0",
        "type": "t_bool"
      },
      {
        "astId": 5430,
        "contract": "contracts/v1/CarboToken.sol:CarboToken",
        "label": "callback",
        "offset": 0,
        "slot": "1",
        "type": "t_contract(ICallbackContract)5745"
      },
      {
        "astId": 5443,
        "contract": "contracts/v1/CarboToken.sol:CarboToken",
        "label": "_callbacks",
        "offset": 0,
        "slot": "2",
        "type": "t_mapping(t_enum(CallbackType)5438,t_bool)"
      },
      {
        "astId": 3087,
        "contract": "contracts/v1/CarboToken.sol:CarboToken",
        "label": "_allowances",
        "offset": 0,
        "slot": "3",
        "type": "t_mapping(t_address,t_mapping(t_address,t_uint256))"
      },
      {
        "astId": 3090,
        "contract": "contracts/v1/CarboToken.sol:CarboToken",
        "label": "_name",
        "offset": 0,
        "slot": "4",
        "type": "t_string_storage"
      },
      {
        "astId": 3093,
        "contract": "contracts/v1/CarboToken.sol:CarboToken",
        "label": "_symbol",
        "offset": 0,
        "slot": "5",
        "type": "t_string_storage"
      },
      {
        "astId": 3506,
        "contract": "contracts/v1/CarboToken.sol:CarboToken",
        "label": "_fees",
        "offset": 0,
        "slot": "6",
        "type": "t_mapping(t_enum(FeeType)5790,t_struct(Fees)5777_storage)"
      },
      {
        "astId": 3512,
        "contract": "contracts/v1/CarboToken.sol:CarboToken",
        "label": "_feeAddresses",
        "offset": 0,
        "slot": "7",
        "type": "t_mapping(t_enum(FeeType)5790,t_struct(FeeAddresses)5786_storage)"
      },
      {
        "astId": 3514,
        "contract": "contracts/v1/CarboToken.sol:CarboToken",
        "label": "_dividendsAddress",
        "offset": 0,
        "slot": "8",
        "type": "t_address"
      },
      {
        "astId": 3516,
        "contract": "contracts/v1/CarboToken.sol:CarboToken",
        "label": "_buybackAddress",
        "offset": 0,
        "slot": "9",
        "type": "t_address"
      },
      {
        "astId": 3518,
        "contract": "contracts/v1/CarboToken.sol:CarboToken",
        "label": "_treasuryAddress",
        "offset": 0,
        "slot": "10",
        "type": "t_address"
      },
      {
        "astId": 3520,
        "contract": "contracts/v1/CarboToken.sol:CarboToken",
        "label": "_liquidityAddress",
        "offset": 0,
        "slot": "11",
        "type": "t_address"
      },
      {
        "astId": 3524,
        "contract": "contracts/v1/CarboToken.sol:CarboToken",
        "label": "_isTaxable",
        "offset": 0,
        "slot": "12",
        "type": "t_mapping(t_address,t_bool)"
      },
      {
        "astId": 3528,
        "contract": "contracts/v1/CarboToken.sol:CarboToken",
        "label": "_isTaxExempt",
        "offset": 0,
        "slot": "13",
        "type": "t_mapping(t_address,t_bool)"
      },
      {
        "astId": 3819,
        "contract": "contracts/v1/CarboToken.sol:CarboToken",
        "label": "_tTotal",
        "offset": 0,
        "slot": "14",
        "type": "t_uint256"
      },
      {
        "astId": 3828,
        "contract": "contracts/v1/CarboToken.sol:CarboToken",
        "label": "_rTotal",
        "offset": 0,
        "slot": "15",
        "type": "t_uint256"
      },
      {
        "astId": 3830,
        "contract": "contracts/v1/CarboToken.sol:CarboToken",
        "label": "_tFeeTotal",
        "offset": 0,
        "slot": "16",
        "type": "t_uint256"
      },
      {
        "astId": 3834,
        "contract": "contracts/v1/CarboToken.sol:CarboToken",
        "label": "_rOwned",
        "offset": 0,
        "slot": "17",
        "type": "t_mapping(t_address,t_uint256)"
      },
      {
        "astId": 3838,
        "contract": "contracts/v1/CarboToken.sol:CarboToken",
        "label": "_tOwned",
        "offset": 0,
        "slot": "18",
        "type": "t_mapping(t_address,t_uint256)"
      },
      {
        "astId": 3842,
        "contract": "contracts/v1/CarboToken.sol:CarboToken",
        "label": "_isExcluded",
        "offset": 0,
        "slot": "19",
        "type": "t_mapping(t_address,t_bool)"
      },
      {
        "astId": 3845,
        "contract": "contracts/v1/CarboToken.sol:CarboToken",
        "label": "_excluded",
        "offset": 0,
        "slot": "20",
        "type": "t_array(t_address)dyn_storage"
      }
    ],
    "types": {
      "t_address": {
        "encoding": "inplace",
        "label": "address",
        "numberOfBytes": "20"
      },
      "t_array(t_address)dyn_storage": {
        "base": "t_address",
        "encoding": "dynamic_array",
        "label": "address[]",
        "numberOfBytes": "32"
      },
      "t_bool": {
        "encoding": "inplace",
        "label": "bool",
        "numberOfBytes": "1"
      },
      "t_contract(ICallbackContract)5745": {
        "encoding": "inplace",
        "label": "contract ICallbackContract",
        "numberOfBytes": "20"
      },
      "t_enum(CallbackType)5438": {
        "encoding": "inplace",
        "label": "enum WithCallback.CallbackType",
        "numberOfBytes": "1"
      },
      "t_enum(FeeType)5790": {
        "encoding": "inplace",
        "label": "enum ICarboToken.FeeType",
        "numberOfBytes": "1"
      },
      "t_mapping(t_address,t_bool)": {
        "encoding": "mapping",
        "key": "t_address",
        "label": "mapping(address => bool)",
        "numberOfBytes": "32",
        "value": "t_bool"
      },
      "t_mapping(t_address,t_mapping(t_address,t_uint256))": {
        "encoding": "mapping",
        "key": "t_address",
        "label": "mapping(address => mapping(address => uint256))",
        "numberOfBytes": "32",
        "value": "t_mapping(t_address,t_uint256)"
      },
      "t_mapping(t_address,t_uint256)": {
        "encoding": "mapping",
        "key": "t_address",
        "label": "mapping(address => uint256)",
        "numberOfBytes": "32",
        "value": "t_uint256"
      },
      "t_mapping(t_enum(CallbackType)5438,t_bool)": {
        "encoding": "mapping",
        "key": "t_enum(CallbackType)5438",
        "label": "mapping(enum WithCallback.CallbackType => bool)",
        "numberOfBytes": "32",
        "value": "t_bool"
      },
      "t_mapping(t_enum(FeeType)5790,t_struct(FeeAddresses)5786_storage)": {
        "encoding": "mapping",
        "key": "t_enum(FeeType)5790",
        "label": "mapping(enum ICarboToken.FeeType => struct ICarboToken.FeeAddresses)",
        "numberOfBytes": "32",
        "value": "t_struct(FeeAddresses)5786_storage"
      },
      "t_mapping(t_enum(FeeType)5790,t_struct(Fees)5777_storage)": {
        "encoding": "mapping",
        "key": "t_enum(FeeType)5790",
        "label": "mapping(enum ICarboToken.FeeType => struct ICarboToken.Fees)",
        "numberOfBytes": "32",
        "value": "t_struct(Fees)5777_storage"
      },
      "t_string_storage": {
        "encoding": "bytes",
        "label": "string",
        "numberOfBytes": "32"
      },
      "t_struct(FeeAddresses)5786_storage": {
        "encoding": "inplace",
        "label": "struct ICarboToken.FeeAddresses",
        "members": [
          {
            "astId": 5779,
            "contract": "contracts/v1/CarboToken.sol:CarboToken",
            "label": "dividends",
            "offset": 0,
            "slot": "0",
            "type": "t_address"
          },
          {
            "astId": 5781,
            "contract": "contracts/v1/CarboToken.sol:CarboToken",
            "label": "buyback",
            "offset": 0,
            "slot": "1",
            "type": "t_address"
          },
          {
            "astId": 5783,
            "contract": "contracts/v1/CarboToken.sol:CarboToken",
            "label": "treasury",
            "offset": 0,
            "slot": "2",
            "type": "t_address"
          },
          {
            "astId": 5785,
            "contract": "contracts/v1/CarboToken.sol:CarboToken",
            "label": "liquidity",
            "offset": 0,
            "slot": "3",
            "type": "t_address"
          }
        ],
        "numberOfBytes": "128"
      },
      "t_struct(Fees)5777_storage": {
        "encoding": "inplace",
        "label": "struct ICarboToken.Fees",
        "members": [
          {
            "astId": 5768,
            "contract": "contracts/v1/CarboToken.sol:CarboToken",
            "label": "rfi",
            "offset": 0,
            "slot": "0",
            "type": "t_uint256"
          },
          {
            "astId": 5770,
            "contract": "contracts/v1/CarboToken.sol:CarboToken",
            "label": "dividends",
            "offset": 0,
            "slot": "1",
            "type": "t_uint256"
          },
          {
            "astId": 5772,
            "contract": "contracts/v1/CarboToken.sol:CarboToken",
            "label": "buyback",
            "offset": 0,
            "slot": "2",
            "type": "t_uint256"
          },
          {
            "astId": 5774,
            "contract": "contracts/v1/CarboToken.sol:CarboToken",
            "label": "treasury",
            "offset": 0,
            "slot": "3",
            "type": "t_uint256"
          },
          {
            "astId": 5776,
            "contract": "contracts/v1/CarboToken.sol:CarboToken",
            "label": "liquidity",
            "offset": 0,
            "slot": "4",
            "type": "t_uint256"
          }
        ],
        "numberOfBytes": "160"
      },
      "t_uint256": {
        "encoding": "inplace",
        "label": "uint256",
        "numberOfBytes": "32"
      }
    }
  }
}