{
  "address": "0xD3DaE4556487a91A49E268F858a4B23B479DB85e",
  "abi": [
    {
      "anonymous": false,
      "inputs": [
        {
          "indexed": true,
          "internalType": "address",
          "name": "to",
          "type": "address"
        },
        {
          "indexed": false,
          "internalType": "uint256",
          "name": "amount",
          "type": "uint256"
        }
      ],
      "name": "DividendWithdrawn",
      "type": "event"
    },
    {
      "anonymous": false,
      "inputs": [
        {
          "indexed": true,
          "internalType": "address",
          "name": "from",
          "type": "address"
        },
        {
          "indexed": false,
          "internalType": "uint256",
          "name": "amount",
          "type": "uint256"
        }
      ],
      "name": "DividendsDistributed",
      "type": "event"
    },
    {
      "anonymous": false,
      "inputs": [
        {
          "indexed": true,
          "internalType": "address",
          "name": "previousOwner",
          "type": "address"
        },
        {
          "indexed": true,
          "internalType": "address",
          "name": "newOwner",
          "type": "address"
        }
      ],
      "name": "OwnershipTransferred",
      "type": "event"
    },
    {
      "inputs": [
        {
          "internalType": "address",
          "name": "account",
          "type": "address"
        }
      ],
      "name": "accumulativeDividendOf",
      "outputs": [
        {
          "internalType": "uint256",
          "name": "",
          "type": "uint256"
        }
      ],
      "stateMutability": "view",
      "type": "function"
    },
    {
      "inputs": [
        {
          "internalType": "address",
          "name": "account",
          "type": "address"
        },
        {
          "internalType": "uint256",
          "name": "tAmount",
          "type": "uint256"
        },
        {
          "internalType": "uint256",
          "name": "rAmount",
          "type": "uint256"
        }
      ],
      "name": "burnCallback",
      "outputs": [],
      "stateMutability": "nonpayable",
      "type": "function"
    },
    {
      "inputs": [],
      "name": "busd",
      "outputs": [
        {
          "internalType": "contract IERC20",
          "name": "",
          "type": "address"
        }
      ],
      "stateMutability": "view",
      "type": "function"
    },
    {
      "inputs": [
        {
          "internalType": "address",
          "name": "account",
          "type": "address"
        },
        {
          "internalType": "uint256",
          "name": "tAmount",
          "type": "uint256"
        },
        {
          "internalType": "uint256",
          "name": "rAmount",
          "type": "uint256"
        }
      ],
      "name": "decreaseBalanceCallback",
      "outputs": [],
      "stateMutability": "nonpayable",
      "type": "function"
    },
    {
      "inputs": [
        {
          "internalType": "uint256",
          "name": "tAmount",
          "type": "uint256"
        },
        {
          "internalType": "uint256",
          "name": "rAmount",
          "type": "uint256"
        }
      ],
      "name": "decreaseTotalSupplyCallback",
      "outputs": [],
      "stateMutability": "nonpayable",
      "type": "function"
    },
    {
      "inputs": [
        {
          "internalType": "uint256",
          "name": "amount",
          "type": "uint256"
        }
      ],
      "name": "distributeDividends",
      "outputs": [],
      "stateMutability": "nonpayable",
      "type": "function"
    },
    {
      "inputs": [
        {
          "internalType": "address",
          "name": "account",
          "type": "address"
        }
      ],
      "name": "dividendCorrectionOf",
      "outputs": [
        {
          "internalType": "uint256",
          "name": "",
          "type": "uint256"
        }
      ],
      "stateMutability": "view",
      "type": "function"
    },
    {
      "inputs": [],
      "name": "dividendPerShare",
      "outputs": [
        {
          "internalType": "uint256",
          "name": "",
          "type": "uint256"
        }
      ],
      "stateMutability": "view",
      "type": "function"
    },
    {
      "inputs": [
        {
          "internalType": "address",
          "name": "account",
          "type": "address"
        }
      ],
      "name": "excludeFromDividends",
      "outputs": [],
      "stateMutability": "nonpayable",
      "type": "function"
    },
    {
      "inputs": [
        {
          "internalType": "address",
          "name": "account",
          "type": "address"
        }
      ],
      "name": "includeInDividends",
      "outputs": [],
      "stateMutability": "nonpayable",
      "type": "function"
    },
    {
      "inputs": [
        {
          "internalType": "address",
          "name": "account",
          "type": "address"
        },
        {
          "internalType": "uint256",
          "name": "tAmount",
          "type": "uint256"
        },
        {
          "internalType": "uint256",
          "name": "rAmount",
          "type": "uint256"
        }
      ],
      "name": "increaseBalanceCallback",
      "outputs": [],
      "stateMutability": "nonpayable",
      "type": "function"
    },
    {
      "inputs": [],
      "name": "owner",
      "outputs": [
        {
          "internalType": "address",
          "name": "",
          "type": "address"
        }
      ],
      "stateMutability": "view",
      "type": "function"
    },
    {
      "inputs": [
        {
          "internalType": "address",
          "name": "account",
          "type": "address"
        },
        {
          "internalType": "uint256",
          "name": "tAmount",
          "type": "uint256"
        },
        {
          "internalType": "uint256",
          "name": "rAmount",
          "type": "uint256"
        }
      ],
      "name": "reflectCallback",
      "outputs": [],
      "stateMutability": "nonpayable",
      "type": "function"
    },
    {
      "inputs": [
        {
          "internalType": "uint256",
          "name": "tAmount",
          "type": "uint256"
        },
        {
          "internalType": "uint256",
          "name": "rAmount",
          "type": "uint256"
        }
      ],
      "name": "reflectCallback",
      "outputs": [],
      "stateMutability": "nonpayable",
      "type": "function"
    },
    {
      "inputs": [],
      "name": "renounceOwnership",
      "outputs": [],
      "stateMutability": "nonpayable",
      "type": "function"
    },
    {
      "inputs": [
        {
          "internalType": "address",
          "name": "recipient",
          "type": "address"
        },
        {
          "internalType": "address",
          "name": "tokenAddress",
          "type": "address"
        }
      ],
      "name": "retrieveTokens",
      "outputs": [],
      "stateMutability": "nonpayable",
      "type": "function"
    },
    {
      "inputs": [
        {
          "internalType": "address payable",
          "name": "recipient",
          "type": "address"
        }
      ],
      "name": "retriveETH",
      "outputs": [],
      "stateMutability": "nonpayable",
      "type": "function"
    },
    {
      "inputs": [
        {
          "internalType": "address",
          "name": "_busd",
          "type": "address"
        }
      ],
      "name": "setBUSD",
      "outputs": [],
      "stateMutability": "nonpayable",
      "type": "function"
    },
    {
      "inputs": [
        {
          "internalType": "address",
          "name": "_token",
          "type": "address"
        }
      ],
      "name": "setToken",
      "outputs": [],
      "stateMutability": "nonpayable",
      "type": "function"
    },
    {
      "inputs": [],
      "name": "token",
      "outputs": [
        {
          "internalType": "contract ICarboToken",
          "name": "",
          "type": "address"
        }
      ],
      "stateMutability": "view",
      "type": "function"
    },
    {
      "inputs": [
        {
          "internalType": "address",
          "name": "from",
          "type": "address"
        },
        {
          "internalType": "address",
          "name": "to",
          "type": "address"
        },
        {
          "internalType": "uint256",
          "name": "tFromAmount",
          "type": "uint256"
        },
        {
          "internalType": "uint256",
          "name": "rFromAmount",
          "type": "uint256"
        },
        {
          "internalType": "uint256",
          "name": "tToAmount",
          "type": "uint256"
        },
        {
          "internalType": "uint256",
          "name": "rToAmount",
          "type": "uint256"
        }
      ],
      "name": "transferCallback",
      "outputs": [],
      "stateMutability": "nonpayable",
      "type": "function"
    },
    {
      "inputs": [
        {
          "internalType": "address",
          "name": "newOwner",
          "type": "address"
        }
      ],
      "name": "transferOwnership",
      "outputs": [],
      "stateMutability": "nonpayable",
      "type": "function"
    },
    {
      "inputs": [],
      "name": "withdrawDividend",
      "outputs": [],
      "stateMutability": "nonpayable",
      "type": "function"
    },
    {
      "inputs": [
        {
          "internalType": "address",
          "name": "account",
          "type": "address"
        }
      ],
      "name": "withdrawableDividendOf",
      "outputs": [
        {
          "internalType": "uint256",
          "name": "",
          "type": "uint256"
        }
      ],
      "stateMutability": "view",
      "type": "function"
    },
    {
      "inputs": [
        {
          "internalType": "address",
          "name": "account",
          "type": "address"
        }
      ],
      "name": "withdrawnDividendOf",
      "outputs": [
        {
          "internalType": "uint256",
          "name": "",
          "type": "uint256"
        }
      ],
      "stateMutability": "view",
      "type": "function"
    }
  ],
  "transactionHash": "0x9cb0987bd990d7300144c52ba53100527b61e10144fd76536fe65104410c2dcc",
  "args": [],
  "solcInputHash": "02e4a29bfd2480dae87c85e2856a38fe",
  "bytecode": "0x608060405234801561001057600080fd5b5061001a3361001f565b61006f565b600080546001600160a01b038381166001600160a01b0319831681178455604051919092169283917f8be0079c531659141344cd1fd0a4f28419497f9722a3daafe3b4186f6b6457e09190a35050565b611b6d8061007e6000396000f3fe608060405234801561001057600080fd5b50600436106101735760003560e01c806389df0749116100de578063aafd847a11610097578063cdb4ad7111610071578063cdb4ad7114610314578063cfe6bb581461018d578063f2fde38b14610327578063fc0c546a1461033a57600080fd5b8063aafd847a146102c5578063addfb2df146102ee578063c0f306ef1461030157600080fd5b806389df0749146102685780638da5cb5b1461027b5780639216e53e1461028c5780639805f01b1461029f578063a17e019c1461028c578063a8b9d240146102b257600080fd5b80633243c791116101305780633243c791146101f45780633ca5b234146102075780636341ca0b146102325780636473b1eb146102455780636a47400214610258578063715018a61461026057600080fd5b80630abc6e33146101785780631083ee081461018d578063144fa6d7146101a05780631c763596146101b357806327ce0147146101ce57806331e79db0146101e1575b600080fd5b61018b610186366004611924565b61034d565b005b61018b61019b366004611924565b6103d6565b61018b6101ae366004611959565b610400565b6101bb61042a565b6040519081526020015b60405180910390f35b6101bb6101dc366004611959565b610441565b61018b6101ef366004611959565b610505565b61018b610202366004611976565b6105b5565b60025461021a906001600160a01b031681565b6040516001600160a01b0390911681526020016101c5565b61018b61024036600461198f565b61081e565b61018b610253366004611959565b61090f565b61018b610950565b61018b61095b565b61018b610276366004611924565b61096d565b6000546001600160a01b031661021a565b61018b61029a3660046119c8565b6109db565b61018b6102ad366004611959565b610a05565b6101bb6102c0366004611959565b610a2f565b6101bb6102d3366004611959565b6001600160a01b031660009081526006602052604090205490565b61018b6102fc3660046119ea565b610a84565b61018b61030f366004611959565b610ab6565b6101bb610322366004611959565b610bc3565b61018b610335366004611959565b610be8565b60015461021a906001600160a01b031681565b6001546001600160a01b031633146103805760405162461bcd60e51b815260040161037790611a43565b60405180910390fd5b6001600160a01b03831660009081526007602052604090205460ff16156103b757806003546103af9190611aa1565b600355505050565b6103d1836103cc6103c784610c61565b610cc5565b610cd8565b505050565b6001546001600160a01b031633146103d15760405162461bcd60e51b815260040161037790611a43565b610408610d34565b600180546001600160a01b0319166001600160a01b0392909216919091179055565b60045460009061043c9060801b610d8e565b905090565b6004805460015460405163021feb8560e21b81526001600160a01b03858116948201949094526000936104ff936104fa936104d99360809290921b926104d49291169063087fae14906024015b602060405180830381865afa1580156104ab573d6000803e3d6000fd5b505050506040513d601f19601f820116820180604052508101906104cf9190611ab8565b610c61565b610e12565b6001600160a01b03851660009081526005602052604090205460801b61108f565b610d8e565b92915050565b61050d610d34565b6105168161144f565b6001600160a01b0381811660008181526007602052604090819020805460ff1916600190811790915554905163021feb8560e21b815260048101929092529091169063087fae1490602401602060405180830381865afa15801561057e573d6000803e3d6000fd5b505050506040513d601f19601f820116820180604052508101906105a29190611ab8565b6003546105af9190611ad1565b60035550565b6003546001546040805163075d1d6160e01b81529051600093926001600160a01b03169163075d1d619160048083019260209291908290030181865afa158015610603573d6000803e3d6000fd5b505050506040513d601f19601f820116820180604052508101906106279190611ab8565b6106319190611aa1565b9050600081116106a15760405162461bcd60e51b815260206004820152603560248201527f4469766964656e644d616e616765723a20746f74616c537570706c792073686f6044820152740756c642062652067726561746572207468616e203605c1b6064820152608401610377565b600082116107175760405162461bcd60e51b815260206004820152603c60248201527f4469766964656e644d616e616765723a20646973747269627574656420616d6f60448201527f756e742073686f756c642062652067726561746572207468616e2030000000006064820152608401610377565b6002546001600160a01b03166323b872dd336040516001600160e01b031960e084901b1681526001600160a01b039091166004820152306024820152604481018590526064016020604051808303816000875af115801561077c573d6000803e3d6000fd5b505050506040513d601f19601f820116820180604052508101906107a09190611ae9565b506004546107ca9060801b6107c56107b785610c61565b6107c085610c61565b61154e565b61108f565b600480546001600160801b03191660809290921c91909117905560405182815233907fa493a9229478c3fcd73f66d2cdeb7f94fd0f341da924d1054236d78454116511906020015b60405180910390a25050565b610826610d34565b6040516370a0823160e01b815230600482015281906001600160a01b0382169063a9059cbb90859083906370a0823190602401602060405180830381865afa158015610876573d6000803e3d6000fd5b505050506040513d601f19601f8201168201806040525081019061089a9190611ab8565b6040516001600160e01b031960e085901b1681526001600160a01b03909216600483015260248201526044016020604051808303816000875af11580156108e5573d6000803e3d6000fd5b505050506040513d601f19601f820116820180604052508101906109099190611ae9565b50505050565b610917610d34565b6040516001600160a01b038216904780156108fc02916000818181858888f1935050505015801561094c573d6000803e3d6000fd5b5050565b6109593361144f565b565b610963610d34565b61095960006117e4565b6001546001600160a01b031633146109975760405162461bcd60e51b815260040161037790611a43565b6001600160a01b03831660009081526007602052604090205460ff16156109c657806003546103af9190611ad1565b6103d1836109d66103c784610c61565b611834565b6001546001600160a01b0316331461094c5760405162461bcd60e51b815260040161037790611a43565b610a0d610d34565b600280546001600160a01b0319166001600160a01b0392909216919091179055565b6001600160a01b03811660009081526007602052604081205460ff1615610a5857506000919050565b6001600160a01b038216600090815260066020526040902054610a7a83610441565b6104ff9190611aa1565b6001546001600160a01b03163314610aae5760405162461bcd60e51b815260040161037790611a43565b505050505050565b610abe610d34565b6004805460015460405163021feb8560e21b81526001600160a01b0385811694820194909452610b0e93610b059360801b926104d49291169063087fae149060240161048e565b600160ff1b1890565b6001600160a01b03828116600081815260056020908152604080832080546001600160801b03191660809790971c9690961790955560079052839020805460ff19169055600154925163021feb8560e21b8152600481019190915291169063087fae1490602401602060405180830381865afa158015610b92573d6000803e3d6000fd5b505050506040513d601f19601f82011682018060405250810190610bb69190611ab8565b6003546105af9190611aa1565b6001600160a01b0381166000908152600560205260408120546104ff9060801b610d8e565b610bf0610d34565b6001600160a01b038116610c555760405162461bcd60e51b815260206004820152602660248201527f4f776e61626c653a206e6577206f776e657220697320746865207a65726f206160448201526564647265737360d01b6064820152608401610377565b610c5e816117e4565b50565b600081610c7057506000919050565b816000610c7c8261185a565b90506070811015610c95578060700382901b9150610ca8565b6070811115610ca8576070810382901c91505b613fff0160701b6001600160701b03919091161760801b92915050565b6004546000906104ff9060801b83610e12565b6001600160a01b038216600090815260056020526040902054610cfe9060801b8261108f565b6001600160a01b0392909216600090815260056020526040902080546001600160801b03191660809390931c9290921790915550565b6000546001600160a01b031633146109595760405162461bcd60e51b815260206004820181905260248201527f4f776e61626c653a2063616c6c6572206973206e6f7420746865206f776e65726044820152606401610377565b6000617fff60f083901c16613fff811015610dac5750600092915050565b6001607f1b608084901c10610dc057600080fd5b6140fe811115610dcf57600080fd5b600160701b6001600160701b03608085901c161761406f821015610df95761406f8290031c610e0b565b61406f821115610e0b5761406e1982011b5b9392505050565b6000617fff60f084811c8216919084901c811690821415610ec25780617fff1415610e90576001600160801b03198581169085161415610e5d57505050600160ff1b811682186104ff565b600160ff1b6001600160801b0319868618161415610e80575050508181176104ff565b5061ffff60ef1b91506104ff9050565b600160801b600160ff1b038416610eb1575061ffff60ef1b91506104ff9050565b505050600160ff1b811682186104ff565b80617fff1415610efe57600160801b600160ff1b038516610eed575061ffff60ef1b91506104ff9050565b505050600160ff1b821681186104ff565b6001600160701b03608086901c1682610f1a5760019250610f21565b600160701b175b6001600160701b03608086901c1682610f3d5760019250610f44565b600160701b175b9081029081610f7257600160ff1b87871816610f61576000610f67565b600160ff1b5b9450505050506104ff565b928201926000600160e11b831015610fa557600160e01b831015610f9e57610f998361185a565b610fa8565b60e0610fa8565b60e15b90506140708186011015610fc3576000945060009250611060565b6140e0818601101561100657614070851015610fe857846140700383901c9250610ffd565b614070851115610ffd57614070850383901b92505b60009450611060565b61c0dd818601111561102057617fff945060009250611060565b6070811115611037576070810383901c925061104a565b607081101561104a578060700383901b92505b6001600160701b03831692506140df8186010394505b82607086901b888a186001607f1b60801b1660801c6001600160801b0316171760801b955050505050506104ff565b6000617fff60f084811c8216919084901c8116908214156110dd5780617fff14156110d3576001600160801b03198581169085161415610e805784925050506104ff565b84925050506104ff565b80617fff14156110f15783925050506104ff565b6001607f1b608086901c90811015906001600160701b031683611117576001935061111e565b600160701b175b6001607f1b608087901c90811015906001600160701b031684611144576001945061114b565b600160701b175b8261117b576001600160801b03198816600160ff1b1461116b578761116e565b60005b96505050505050506104ff565b8061119b576001600160801b03198916600160ff1b1461116b578861116e565b84860384151583151514156112a65760708113156111c257899750505050505050506104ff565b60008113156111d45790811c90611203565b606f198112156111ed57889750505050505050506104ff565b6000811215611203578060000384901c93508596505b92810192600160711b841061121e576001968701969390931c925b86617fff1415611250578461123857617fff60f01b611242565b6001600160f01b03195b9750505050505050506104ff565b600160701b8410156112655760009650611272565b6001600160701b03841693505b83607088901b8661128457600061128a565b6001607f1b5b6001600160801b0316171760801b9750505050505050506104ff565b60008113156112c157600184901b93506001870396506112d8565b60008112156112d857600182901b91506001860396505b60708113156112ea5760019150611337565b6001811315611307576001810360018303901c6001019150611337565b606f1981121561131a5760019350611337565b600019811215611337576001816000030360018503901c60010193505b818410611348578184039350611351565b83820393508294505b836113675750600096506104ff95505050505050565b60006113728561185a565b9050806071141561139857600185901c6001600160701b031694506001880197506113e7565b60708110156113da576070819003808911156113c7578086901b6001600160701b0316955080890398506113d4565b600098600019019590951b945b506113e7565b6001600160701b03851694505b87617fff141561141a578561140157617fff60f01b61140b565b6001600160f01b03195b985050505050505050506104ff565b84607089901b8761142c576000611432565b6001607f1b5b6001600160801b0316171760801b985050505050505050506104ff565b600061145a82610a2f565b9050801561094c576001600160a01b038216600090815260066020526040902054611486908290611ad1565b6001600160a01b038381166000818152600660205260409081902093909355600254925163a9059cbb60e01b815260048101919091526024810184905291169063a9059cbb906044016020604051808303816000875af11580156114ee573d6000803e3d6000fd5b505050506040513d601f19601f820116820180604052508101906115129190611ae9565b50816001600160a01b03167fee503bee2bb6a87e57bc57db795f98137327401a0e7b7ce42e37926cc1a9ca4d8260405161081291815260200190565b6000617fff60f084811c8216919084901c8116908214156115835780617fff1415610eb1575061ffff60ef1b91506104ff9050565b80617fff14156115c7576dffffffffffffffffffffffffffff60801b8416156115b6575061ffff60ef1b91506104ff9050565b505050808218600160ff1b166104ff565b600160801b600160ff1b03841661161157600160801b600160ff1b0385166115f9575061ffff60ef1b91506104ff9050565b505050808218600160ff1b16617fff60f01b176104ff565b6001600160701b03608085901c168161162d5760019150611634565b600160701b175b6001600160701b03608087901c168361167357801561166e5760006116588261185a565b6001955060e20393840160711901939190911b90505b61167d565b600160701b1760721b5b81818161168c5761168c611b0b565b049050806116a857600160ff1b87871816610f61576000610f67565b6001606c1b8110156116bc576116bc611b21565b6000600160731b8210156116fb57600160721b8210156116f057600160711b8210156116e95760706116f3565b60716116f3565b60725b60ff16611704565b6117048261185a565b90508361407101818601111561172257617fff9450600091506117b5565b83818601613ffc01101561173d5760009450600091506117b5565b83818601613f8c01101561178a578385613ffc011115611768578385613ffc010382901b9150611781565b8385613ffc01101561178157613ffc8585030382901c91505b600094506117b5565b607081111561179d576070810382901c91505b6001600160701b038216915083818601613f8d010394505b81607086901b888a186001607f1b60801b1660801c6001600160801b0316171760801b955050505050506104ff565b600080546001600160a01b038381166001600160a01b0319831681178455604051919092169283917f8be0079c531659141344cd1fd0a4f28419497f9722a3daafe3b4186f6b6457e09190a35050565b6001600160a01b038216600090815260056020526040902054610cfe9060801b826118fd565b600080821161186857600080fd5b6000600160801b831061187d57608092831c92015b68010000000000000000831061189557604092831c92015b64010000000083106118a957602092831c92015b6201000083106118bb57601092831c92015b61010083106118cc57600892831c92015b601083106118dc57600492831c92015b600483106118ec57600292831c92015b600283106104ff5760010192915050565b6000610e0b83600160ff1b841861108f565b6001600160a01b0381168114610c5e57600080fd5b60008060006060848603121561193957600080fd5b83356119448161190f565b95602085013595506040909401359392505050565b60006020828403121561196b57600080fd5b8135610e0b8161190f565b60006020828403121561198857600080fd5b5035919050565b600080604083850312156119a257600080fd5b82356119ad8161190f565b915060208301356119bd8161190f565b809150509250929050565b600080604083850312156119db57600080fd5b50508035926020909101359150565b60008060008060008060c08789031215611a0357600080fd5b8635611a0e8161190f565b95506020870135611a1e8161190f565b95989597505050506040840135936060810135936080820135935060a0909101359150565b60208082526028908201527f4469766964656e644d616e616765723a2063616c6c6572206973206e6f7420746040820152673432903a37b5b2b760c11b606082015260800190565b634e487b7160e01b600052601160045260246000fd5b600082821015611ab357611ab3611a8b565b500390565b600060208284031215611aca57600080fd5b5051919050565b60008219821115611ae457611ae4611a8b565b500190565b600060208284031215611afb57600080fd5b81518015158114610e0b57600080fd5b634e487b7160e01b600052601260045260246000fd5b634e487b7160e01b600052600160045260246000fdfea264697066735822122016396cc780f2f8b73f9d954cf8a3f3b1e9700692230aff9194f8abe9c5b6945a64736f6c634300080a0033",
  "devdoc": {
    "kind": "dev",
    "methods": {
      "owner()": {
        "details": "Returns the address of the current owner."
      },
      "renounceOwnership()": {
        "details": "Leaves the contract without owner. It will not be possible to call `onlyOwner` functions anymore. Can only be called by the current owner. NOTE: Renouncing ownership will leave the contract without an owner, thereby removing any functionality that is only available to the owner."
      },
      "transferOwnership(address)": {
        "details": "Transfers ownership of the contract to a new account (`newOwner`). Can only be called by the current owner."
      }
    },
    "version": 1
  },
  "userdoc": {
    "kind": "user",
    "methods": {},
    "version": 1
  },
  "storageLayout": {
    "storage": [
      {
        "astId": 396,
        "contract": "contracts/v1/DividendManager.sol:DividendManager",
        "label": "_owner",
        "offset": 0,
        "slot": "0",
        "type": "t_address"
      },
      {
        "astId": 4828,
        "contract": "contracts/v1/DividendManager.sol:DividendManager",
        "label": "token",
        "offset": 0,
        "slot": "1",
        "type": "t_contract(ICarboToken)5951"
      },
      {
        "astId": 4831,
        "contract": "contracts/v1/DividendManager.sol:DividendManager",
        "label": "busd",
        "offset": 0,
        "slot": "2",
        "type": "t_contract(IERC20)1274"
      },
      {
        "astId": 4833,
        "contract": "contracts/v1/DividendManager.sol:DividendManager",
        "label": "_excludedSupply",
        "offset": 0,
        "slot": "3",
        "type": "t_uint256"
      },
      {
        "astId": 4835,
        "contract": "contracts/v1/DividendManager.sol:DividendManager",
        "label": "_dividendPerShare",
        "offset": 0,
        "slot": "4",
        "type": "t_bytes16"
      },
      {
        "astId": 4839,
        "contract": "contracts/v1/DividendManager.sol:DividendManager",
        "label": "_dividendCorrections",
        "offset": 0,
        "slot": "5",
        "type": "t_mapping(t_address,t_bytes16)"
      },
      {
        "astId": 4843,
        "contract": "contracts/v1/DividendManager.sol:DividendManager",
        "label": "_withdrawnDividends",
        "offset": 0,
        "slot": "6",
        "type": "t_mapping(t_address,t_uint256)"
      },
      {
        "astId": 4847,
        "contract": "contracts/v1/DividendManager.sol:DividendManager",
        "label": "_excluded",
        "offset": 0,
        "slot": "7",
        "type": "t_mapping(t_address,t_bool)"
      }
    ],
    "types": {
      "t_address": {
        "encoding": "inplace",
        "label": "address",
        "numberOfBytes": "20"
      },
      "t_bool": {
        "encoding": "inplace",
        "label": "bool",
        "numberOfBytes": "1"
      },
      "t_bytes16": {
        "encoding": "inplace",
        "label": "bytes16",
        "numberOfBytes": "16"
      },
      "t_contract(ICarboToken)5951": {
        "encoding": "inplace",
        "label": "contract ICarboToken",
        "numberOfBytes": "20"
      },
      "t_contract(IERC20)1274": {
        "encoding": "inplace",
        "label": "contract IERC20",
        "numberOfBytes": "20"
      },
      "t_mapping(t_address,t_bool)": {
        "encoding": "mapping",
        "key": "t_address",
        "label": "mapping(address => bool)",
        "numberOfBytes": "32",
        "value": "t_bool"
      },
      "t_mapping(t_address,t_bytes16)": {
        "encoding": "mapping",
        "key": "t_address",
        "label": "mapping(address => bytes16)",
        "numberOfBytes": "32",
        "value": "t_bytes16"
      },
      "t_mapping(t_address,t_uint256)": {
        "encoding": "mapping",
        "key": "t_address",
        "label": "mapping(address => uint256)",
        "numberOfBytes": "32",
        "value": "t_uint256"
      },
      "t_uint256": {
        "encoding": "inplace",
        "label": "uint256",
        "numberOfBytes": "32"
      }
    }
  }
}