{
  "address": "0x3245C4C12c5Cdf4dcB2cAccD1316a8378D6f78B1",
  "abi": [
    {
      "inputs": [
        {
          "internalType": "address",
          "name": "owner",
          "type": "address"
        },
        {
          "internalType": "address",
          "name": "_mainToken",
          "type": "address"
        }
      ],
      "stateMutability": "payable",
      "type": "constructor"
    },
    {
      "anonymous": false,
      "inputs": [
        {
          "indexed": false,
          "internalType": "uint256",
          "name": "poolId",
          "type": "uint256"
        },
        {
          "components": [
            {
              "internalType": "string",
              "name": "name",
              "type": "string"
            },
            {
              "internalType": "uint256",
              "name": "lockDurations",
              "type": "uint256"
            },
            {
              "internalType": "uint256",
              "name": "requiredToken",
              "type": "uint256"
            },
            {
              "internalType": "bool",
              "name": "isActive",
              "type": "bool"
            }
          ],
          "indexed": false,
          "internalType": "struct StakingCarbon.StakingOptions",
          "name": "payload",
          "type": "tuple"
        }
      ],
      "name": "AddPoolSuccessful",
      "type": "event"
    },
    {
      "anonymous": false,
      "inputs": [
        {
          "indexed": false,
          "internalType": "address",
          "name": "user",
          "type": "address"
        },
        {
          "indexed": false,
          "internalType": "uint256",
          "name": "timeRestake",
          "type": "uint256"
        }
      ],
      "name": "RestakeSuccessful",
      "type": "event"
    },
    {
      "anonymous": false,
      "inputs": [
        {
          "indexed": true,
          "internalType": "bytes32",
          "name": "role",
          "type": "bytes32"
        },
        {
          "indexed": true,
          "internalType": "bytes32",
          "name": "previousAdminRole",
          "type": "bytes32"
        },
        {
          "indexed": true,
          "internalType": "bytes32",
          "name": "newAdminRole",
          "type": "bytes32"
        }
      ],
      "name": "RoleAdminChanged",
      "type": "event"
    },
    {
      "anonymous": false,
      "inputs": [
        {
          "indexed": true,
          "internalType": "bytes32",
          "name": "role",
          "type": "bytes32"
        },
        {
          "indexed": true,
          "internalType": "address",
          "name": "account",
          "type": "address"
        },
        {
          "indexed": true,
          "internalType": "address",
          "name": "sender",
          "type": "address"
        }
      ],
      "name": "RoleGranted",
      "type": "event"
    },
    {
      "anonymous": false,
      "inputs": [
        {
          "indexed": true,
          "internalType": "bytes32",
          "name": "role",
          "type": "bytes32"
        },
        {
          "indexed": true,
          "internalType": "address",
          "name": "account",
          "type": "address"
        },
        {
          "indexed": true,
          "internalType": "address",
          "name": "sender",
          "type": "address"
        }
      ],
      "name": "RoleRevoked",
      "type": "event"
    },
    {
      "anonymous": false,
      "inputs": [
        {
          "indexed": false,
          "internalType": "address",
          "name": "user",
          "type": "address"
        },
        {
          "indexed": false,
          "internalType": "uint256",
          "name": "stakePackage",
          "type": "uint256"
        },
        {
          "indexed": false,
          "internalType": "uint256",
          "name": "stakeStart",
          "type": "uint256"
        }
      ],
      "name": "StakeSuccessful",
      "type": "event"
    },
    {
      "anonymous": false,
      "inputs": [
        {
          "indexed": false,
          "internalType": "address",
          "name": "user",
          "type": "address"
        }
      ],
      "name": "UnstakeSuccessful",
      "type": "event"
    },
    {
      "inputs": [],
      "name": "ADMIN",
      "outputs": [
        {
          "internalType": "bytes32",
          "name": "",
          "type": "bytes32"
        }
      ],
      "stateMutability": "view",
      "type": "function"
    },
    {
      "inputs": [],
      "name": "DEFAULT_ADMIN_ROLE",
      "outputs": [
        {
          "internalType": "bytes32",
          "name": "",
          "type": "bytes32"
        }
      ],
      "stateMutability": "view",
      "type": "function"
    },
    {
      "inputs": [
        {
          "components": [
            {
              "internalType": "string",
              "name": "name",
              "type": "string"
            },
            {
              "internalType": "uint256",
              "name": "lockDurations",
              "type": "uint256"
            },
            {
              "internalType": "uint256",
              "name": "requiredToken",
              "type": "uint256"
            },
            {
              "internalType": "bool",
              "name": "isActive",
              "type": "bool"
            }
          ],
          "internalType": "struct StakingCarbon.StakingOptions",
          "name": "payload",
          "type": "tuple"
        }
      ],
      "name": "addStakingPayload",
      "outputs": [],
      "stateMutability": "nonpayable",
      "type": "function"
    },
    {
      "inputs": [
        {
          "internalType": "address",
          "name": "account",
          "type": "address"
        }
      ],
      "name": "changeAdminRole",
      "outputs": [],
      "stateMutability": "nonpayable",
      "type": "function"
    },
    {
      "inputs": [
        {
          "internalType": "bytes32",
          "name": "role",
          "type": "bytes32"
        }
      ],
      "name": "getRoleAdmin",
      "outputs": [
        {
          "internalType": "bytes32",
          "name": "",
          "type": "bytes32"
        }
      ],
      "stateMutability": "view",
      "type": "function"
    },
    {
      "inputs": [
        {
          "internalType": "bytes32",
          "name": "role",
          "type": "bytes32"
        },
        {
          "internalType": "address",
          "name": "account",
          "type": "address"
        }
      ],
      "name": "grantRole",
      "outputs": [],
      "stateMutability": "nonpayable",
      "type": "function"
    },
    {
      "inputs": [
        {
          "internalType": "bytes32",
          "name": "role",
          "type": "bytes32"
        },
        {
          "internalType": "address",
          "name": "account",
          "type": "address"
        }
      ],
      "name": "hasRole",
      "outputs": [
        {
          "internalType": "bool",
          "name": "",
          "type": "bool"
        }
      ],
      "stateMutability": "view",
      "type": "function"
    },
    {
      "inputs": [],
      "name": "mainToken",
      "outputs": [
        {
          "internalType": "address",
          "name": "",
          "type": "address"
        }
      ],
      "stateMutability": "view",
      "type": "function"
    },
    {
      "inputs": [
        {
          "internalType": "bytes32",
          "name": "role",
          "type": "bytes32"
        },
        {
          "internalType": "address",
          "name": "account",
          "type": "address"
        }
      ],
      "name": "renounceRole",
      "outputs": [],
      "stateMutability": "nonpayable",
      "type": "function"
    },
    {
      "inputs": [],
      "name": "restake",
      "outputs": [],
      "stateMutability": "nonpayable",
      "type": "function"
    },
    {
      "inputs": [
        {
          "internalType": "bytes32",
          "name": "role",
          "type": "bytes32"
        },
        {
          "internalType": "address",
          "name": "account",
          "type": "address"
        }
      ],
      "name": "revokeRole",
      "outputs": [],
      "stateMutability": "nonpayable",
      "type": "function"
    },
    {
      "inputs": [
        {
          "internalType": "uint256",
          "name": "package",
          "type": "uint256"
        }
      ],
      "name": "stake",
      "outputs": [],
      "stateMutability": "nonpayable",
      "type": "function"
    },
    {
      "inputs": [
        {
          "internalType": "uint256",
          "name": "",
          "type": "uint256"
        }
      ],
      "name": "stakingOptionsStorage",
      "outputs": [
        {
          "internalType": "string",
          "name": "name",
          "type": "string"
        },
        {
          "internalType": "uint256",
          "name": "lockDurations",
          "type": "uint256"
        },
        {
          "internalType": "uint256",
          "name": "requiredToken",
          "type": "uint256"
        },
        {
          "internalType": "bool",
          "name": "isActive",
          "type": "bool"
        }
      ],
      "stateMutability": "view",
      "type": "function"
    },
    {
      "inputs": [
        {
          "internalType": "bytes4",
          "name": "interfaceId",
          "type": "bytes4"
        }
      ],
      "name": "supportsInterface",
      "outputs": [
        {
          "internalType": "bool",
          "name": "",
          "type": "bool"
        }
      ],
      "stateMutability": "view",
      "type": "function"
    },
    {
      "inputs": [],
      "name": "unstake",
      "outputs": [],
      "stateMutability": "nonpayable",
      "type": "function"
    },
    {
      "inputs": [
        {
          "internalType": "address",
          "name": "",
          "type": "address"
        }
      ],
      "name": "userStateStorage",
      "outputs": [
        {
          "internalType": "uint256",
          "name": "package",
          "type": "uint256"
        },
        {
          "internalType": "uint256",
          "name": "latestUpdate",
          "type": "uint256"
        }
      ],
      "stateMutability": "view",
      "type": "function"
    }
  ],
  "transactionHash": "0x6964d7de16fee104087eae1528bf825f6e609349f393fbbd90b51c9cf4431fac",
  "args": [
    "0xc3a20F9D15cfD2224038EcCC8186C216366c4BFd",
    "0xe8e2e445648564F9B57d7e4177aC327e57e3bD54"
  ],
  "solcInputHash": "d0877e66dc3b6c0226d2de951c37ba18",
  "bytecode": "0x60806040526040516200151038038062001510833981016040819052620000269162000157565b60018055620000376000836200008a565b620000637fdf8b4c520ffe197c5343c6f5aec59570151ef9a492f2c624fd45ddde6135ec42836200009a565b600580546001600160a01b0319166001600160a01b0392909216919091179055506200018f565b6200009682826200009a565b5050565b6000828152602081815260408083206001600160a01b038516845290915290205460ff1662000096576000828152602081815260408083206001600160a01b03851684529091529020805460ff19166001179055620000f63390565b6001600160a01b0316816001600160a01b0316837f2f8788117e7eff1d82e926ec794901d17c78024a50270940304540a733656f0d60405160405180910390a45050565b80516001600160a01b03811681146200015257600080fd5b919050565b600080604083850312156200016b57600080fd5b62000176836200013a565b915062000186602084016200013a565b90509250929050565b611371806200019f6000396000f3fe608060405234801561001057600080fd5b50600436106101005760003560e01c80633fc15f1511610097578063a217fddf11610066578063a217fddf14610232578063a694fc3a1461023a578063d547741f1461024d578063e3e067221461026057600080fd5b80633fc15f15146101c95780634f91440d146101f457806383df938d146101fc57806391d148541461021f57600080fd5b80632def6620116100d35780632def6620146101885780632f2ff15d1461019057806336568abe146101a35780633eaf12aa146101b657600080fd5b806301ffc9a71461010557806304b8c4711461012d578063248a9ca3146101425780632a0acc6a14610173575b600080fd5b610118610113366004610eb8565b61029c565b60405190151581526020015b60405180910390f35b61014061013b366004610efe565b6102d3565b005b610165610150366004610f19565b60009081526020819052604090206001015490565b604051908152602001610124565b61016560008051602061131c83398151915281565b61014061031f565b61014061019e366004610f32565b6104e4565b6101406101b1366004610f32565b61050e565b6101406101c4366004610fe7565b610588565b6005546101dc906001600160a01b031681565b6040516001600160a01b039091168152602001610124565b610140610672565b61020f61020a366004610f19565b610801565b6040516101249493929190611126565b61011861022d366004610f32565b6108b6565b610165600081565b610140610248366004610f19565b6108df565b61014061025b366004610f32565b610a9f565b61028761026e366004610efe565b6004602052600090815260409020805460019091015482565b60408051928352602083019190915201610124565b60006001600160e01b03198216637965db0b60e01b14806102cd57506301ffc9a760e01b6001600160e01b03198316145b92915050565b60008051602061131c8339815191526102eb81610ac4565b61030360008051602061131c83398151915283610ace565b61031b60008051602061131c83398151915233610b52565b5050565b610327610bb7565b3360009081526004602090815260409182902082518084019093528054835260010154908201819052158015906103815750805160009081526002602090815260409091206001015490820151429161037f9161116d565b115b6103eb5760405162461bcd60e51b815260206004820152603060248201527f7573657220646964206e6f74207374616b6520796574206f72207374696c6c2060448201526f34b7103637b1b590323ab930ba34b7b760811b60648201526084015b60405180910390fd5b60055481516000908152600260208190526040918290200154905163a9059cbb60e01b815233600482015260248101919091526001600160a01b039091169063a9059cbb906044016020604051808303816000875af1158015610452573d6000803e3d6000fd5b505050506040513d601f19601f820116820180604052508101906104769190611185565b5060408051808201825260008082526020808301828152338084526004835292859020935184555160019093019290925591519182527f7331ffa4163d8fcfe170da77206116e6089236b012c5b9d2d413a5d320d5413791015b60405180910390a1506104e260018055565b565b6000828152602081905260409020600101546104ff81610ac4565b6105098383610ace565b505050565b6001600160a01b038116331461057e5760405162461bcd60e51b815260206004820152602f60248201527f416363657373436f6e74726f6c3a2063616e206f6e6c792072656e6f756e636560448201526e103937b632b9903337b91039b2b63360891b60648201526084016103e2565b61031b8282610b52565b60008051602061131c8339815191526105a081610ac4565b60408051608081018252835181526020808501518183015284830151828401526060808601511515908301526003546000908152600282529290922081518051929391926105f19284920190610e1f565b506020820151600182015560408083015160028301556060909201516003918201805460ff19169115159190911790555490517fd0d1b066c45ffd627fd44c94051098cedc36c9e01b029fcfa536366fe4bfa9e9916106519185906111a2565b60405180910390a160038054906000610669836111f1565b91905055505050565b61067a610bb7565b3360009081526004602090815260408083208151808301835281548082526001909201548185015290845260029092529091206003015460ff166106f05760405162461bcd60e51b815260206004820152600d60248201526c57726f6e67207061636b61676560981b60448201526064016103e2565b60208101516107415760405162461bcd60e51b815260206004820152601a60248201527f55736572206861766520746f207374616b6520696e20706f6f6c00000000000060448201526064016103e2565b80516000908152600260209081526040909120600101549082015142916107679161116d565b116107b45760405162461bcd60e51b815260206004820152601f60248201527f55736572206861766520746f2070617373206c6f636b206475726174696f6e0060448201526064016103e2565b336000818152600460209081526040918290204260019091018190558251938452908301527f493c430dbefadb0573de4bdae2051fb43cce9ee66f17f470376cf7527a2d524691016104d0565b60026020526000908152604090208054819061081c9061120c565b80601f01602080910402602001604051908101604052809291908181526020018280546108489061120c565b80156108955780601f1061086a57610100808354040283529160200191610895565b820191906000526020600020905b81548152906001019060200180831161087857829003601f168201915b50505050600183015460028401546003909401549293909290915060ff1684565b6000918252602082815260408084206001600160a01b0393909316845291905290205460ff1690565b6108e7610bb7565b60008181526002602052604090206003015460ff166109385760405162461bcd60e51b815260206004820152600d60248201526c57726f6e67207061636b61676560981b60448201526064016103e2565b33600090815260046020526040902060010154156109985760405162461bcd60e51b815260206004820152601a60248201527f5573657220616c7265616479207374616b6520696e20706f6f6c00000000000060448201526064016103e2565b600554600082815260026020819052604091829020015490516323b872dd60e01b815233600482015230602482015260448101919091526001600160a01b03909116906323b872dd906064016020604051808303816000875af1158015610a03573d6000803e3d6000fd5b505050506040513d601f19601f82011682018060405250810190610a279190611185565b5060408051808201825282815242602080830182815233600081815260048452869020945185559051600190940193909355835192835282018490528183015290517f37abc30d0dfe643dbd2e840e90b3f428f4bba7e3ef3d401fd00295aba92356979181900360600190a1610a9c60018055565b50565b600082815260208190526040902060010154610aba81610ac4565b6105098383610b52565b610a9c8133610c11565b610ad882826108b6565b61031b576000828152602081815260408083206001600160a01b03851684529091529020805460ff19166001179055610b0e3390565b6001600160a01b0316816001600160a01b0316837f2f8788117e7eff1d82e926ec794901d17c78024a50270940304540a733656f0d60405160405180910390a45050565b610b5c82826108b6565b1561031b576000828152602081815260408083206001600160a01b0385168085529252808320805460ff1916905551339285917ff6391f5c32d9c69d2a47ea670b442974b53935d1edc7fd64eb21e047a839171b9190a45050565b60026001541415610c0a5760405162461bcd60e51b815260206004820152601f60248201527f5265656e7472616e637947756172643a207265656e7472616e742063616c6c0060448201526064016103e2565b6002600155565b610c1b82826108b6565b61031b57610c2881610c6a565b610c33836020610c7c565b604051602001610c44929190611247565b60408051601f198184030181529082905262461bcd60e51b82526103e2916004016112bc565b60606102cd6001600160a01b03831660145b60606000610c8b8360026112cf565b610c9690600261116d565b67ffffffffffffffff811115610cae57610cae610f5e565b6040519080825280601f01601f191660200182016040528015610cd8576020820181803683370190505b509050600360fc1b81600081518110610cf357610cf36112ee565b60200101906001600160f81b031916908160001a905350600f60fb1b81600181518110610d2257610d226112ee565b60200101906001600160f81b031916908160001a9053506000610d468460026112cf565b610d5190600161116d565b90505b6001811115610dc9576f181899199a1a9b1b9c1cb0b131b232b360811b85600f1660108110610d8557610d856112ee565b1a60f81b828281518110610d9b57610d9b6112ee565b60200101906001600160f81b031916908160001a90535060049490941c93610dc281611304565b9050610d54565b508315610e185760405162461bcd60e51b815260206004820181905260248201527f537472696e67733a20686578206c656e67746820696e73756666696369656e7460448201526064016103e2565b9392505050565b828054610e2b9061120c565b90600052602060002090601f016020900481019282610e4d5760008555610e93565b82601f10610e6657805160ff1916838001178555610e93565b82800160010185558215610e93579182015b82811115610e93578251825591602001919060010190610e78565b50610e9f929150610ea3565b5090565b5b80821115610e9f5760008155600101610ea4565b600060208284031215610eca57600080fd5b81356001600160e01b031981168114610e1857600080fd5b80356001600160a01b0381168114610ef957600080fd5b919050565b600060208284031215610f1057600080fd5b610e1882610ee2565b600060208284031215610f2b57600080fd5b5035919050565b60008060408385031215610f4557600080fd5b82359150610f5560208401610ee2565b90509250929050565b634e487b7160e01b600052604160045260246000fd5b6040516080810167ffffffffffffffff81118282101715610f9757610f97610f5e565b60405290565b604051601f8201601f1916810167ffffffffffffffff81118282101715610fc657610fc6610f5e565b604052919050565b8015158114610a9c57600080fd5b8035610ef981610fce565b60006020808385031215610ffa57600080fd5b823567ffffffffffffffff8082111561101257600080fd5b908401906080828703121561102657600080fd5b61102e610f74565b82358281111561103d57600080fd5b8301601f8101881361104e57600080fd5b80358381111561106057611060610f5e565b611072601f8201601f19168701610f9d565b9350808452888682840101111561108857600080fd5b8086830187860137600086828601015250508181528383013584820152604083013560408201526110bb60608401610fdc565b60608201529695505050505050565b60005b838110156110e55781810151838201526020016110cd565b838111156110f4576000848401525b50505050565b600081518084526111128160208601602086016110ca565b601f01601f19169290920160200192915050565b60808152600061113960808301876110fa565b60208301959095525060408101929092521515606090910152919050565b634e487b7160e01b600052601160045260246000fd5b6000821982111561118057611180611157565b500190565b60006020828403121561119757600080fd5b8151610e1881610fce565b8281526040602082015260008251608060408401526111c460c08401826110fa565b905060208401516060840152604084015160808401526060840151151560a0840152809150509392505050565b600060001982141561120557611205611157565b5060010190565b600181811c9082168061122057607f821691505b6020821081141561124157634e487b7160e01b600052602260045260246000fd5b50919050565b7f416363657373436f6e74726f6c3a206163636f756e742000000000000000000081526000835161127f8160178501602088016110ca565b7001034b99036b4b9b9b4b733903937b6329607d1b60179184019182015283516112b08160288401602088016110ca565b01602801949350505050565b602081526000610e1860208301846110fa565b60008160001904831182151516156112e9576112e9611157565b500290565b634e487b7160e01b600052603260045260246000fd5b60008161131357611313611157565b50600019019056fedf8b4c520ffe197c5343c6f5aec59570151ef9a492f2c624fd45ddde6135ec42a2646970667358221220035adfc548a37234159d10dc6f9b5d92575a7fecf019cc2b5771eab7d31a003e64736f6c634300080a0033",
  "devdoc": {
    "kind": "dev",
    "methods": {
      "getRoleAdmin(bytes32)": {
        "details": "Returns the admin role that controls `role`. See {grantRole} and {revokeRole}. To change a role's admin, use {_setRoleAdmin}."
      },
      "grantRole(bytes32,address)": {
        "details": "Grants `role` to `account`. If `account` had not been already granted `role`, emits a {RoleGranted} event. Requirements: - the caller must have ``role``'s admin role. May emit a {RoleGranted} event."
      },
      "hasRole(bytes32,address)": {
        "details": "Returns `true` if `account` has been granted `role`."
      },
      "renounceRole(bytes32,address)": {
        "details": "Revokes `role` from the calling account. Roles are often managed via {grantRole} and {revokeRole}: this function's purpose is to provide a mechanism for accounts to lose their privileges if they are compromised (such as when a trusted device is misplaced). If the calling account had been revoked `role`, emits a {RoleRevoked} event. Requirements: - the caller must be `account`. May emit a {RoleRevoked} event."
      },
      "revokeRole(bytes32,address)": {
        "details": "Revokes `role` from `account`. If `account` had been granted `role`, emits a {RoleRevoked} event. Requirements: - the caller must have ``role``'s admin role. May emit a {RoleRevoked} event."
      },
      "supportsInterface(bytes4)": {
        "details": "See {IERC165-supportsInterface}."
      }
    },
    "version": 1
  },
  "userdoc": {
    "kind": "user",
    "methods": {},
    "version": 1
  },
  "storageLayout": {
    "storage": [
      {
        "astId": 24,
        "contract": "contracts/StakingCarbon.sol:StakingCarbon",
        "label": "_roles",
        "offset": 0,
        "slot": "0",
        "type": "t_mapping(t_bytes32,t_struct(RoleData)19_storage)"
      },
      {
        "astId": 399,
        "contract": "contracts/StakingCarbon.sol:StakingCarbon",
        "label": "_status",
        "offset": 0,
        "slot": "1",
        "type": "t_uint256"
      },
      {
        "astId": 1764,
        "contract": "contracts/StakingCarbon.sol:StakingCarbon",
        "label": "stakingOptionsStorage",
        "offset": 0,
        "slot": "2",
        "type": "t_mapping(t_uint256,t_struct(StakingOptions)1759_storage)"
      },
      {
        "astId": 1766,
        "contract": "contracts/StakingCarbon.sol:StakingCarbon",
        "label": "stakingOptionsLength",
        "offset": 0,
        "slot": "3",
        "type": "t_uint256"
      },
      {
        "astId": 1776,
        "contract": "contracts/StakingCarbon.sol:StakingCarbon",
        "label": "userStateStorage",
        "offset": 0,
        "slot": "4",
        "type": "t_mapping(t_address,t_struct(UserState)1771_storage)"
      },
      {
        "astId": 1778,
        "contract": "contracts/StakingCarbon.sol:StakingCarbon",
        "label": "mainToken",
        "offset": 0,
        "slot": "5",
        "type": "t_address"
      }
    ],
    "types": {
      "t_address": {
        "encoding": "inplace",
        "label": "address",
        "numberOfBytes": "20"
      },
      "t_bool": {
        "encoding": "inplace",
        "label": "bool",
        "numberOfBytes": "1"
      },
      "t_bytes32": {
        "encoding": "inplace",
        "label": "bytes32",
        "numberOfBytes": "32"
      },
      "t_mapping(t_address,t_bool)": {
        "encoding": "mapping",
        "key": "t_address",
        "label": "mapping(address => bool)",
        "numberOfBytes": "32",
        "value": "t_bool"
      },
      "t_mapping(t_address,t_struct(UserState)1771_storage)": {
        "encoding": "mapping",
        "key": "t_address",
        "label": "mapping(address => struct StakingCarbon.UserState)",
        "numberOfBytes": "32",
        "value": "t_struct(UserState)1771_storage"
      },
      "t_mapping(t_bytes32,t_struct(RoleData)19_storage)": {
        "encoding": "mapping",
        "key": "t_bytes32",
        "label": "mapping(bytes32 => struct AccessControl.RoleData)",
        "numberOfBytes": "32",
        "value": "t_struct(RoleData)19_storage"
      },
      "t_mapping(t_uint256,t_struct(StakingOptions)1759_storage)": {
        "encoding": "mapping",
        "key": "t_uint256",
        "label": "mapping(uint256 => struct StakingCarbon.StakingOptions)",
        "numberOfBytes": "32",
        "value": "t_struct(StakingOptions)1759_storage"
      },
      "t_string_storage": {
        "encoding": "bytes",
        "label": "string",
        "numberOfBytes": "32"
      },
      "t_struct(RoleData)19_storage": {
        "encoding": "inplace",
        "label": "struct AccessControl.RoleData",
        "members": [
          {
            "astId": 16,
            "contract": "contracts/StakingCarbon.sol:StakingCarbon",
            "label": "members",
            "offset": 0,
            "slot": "0",
            "type": "t_mapping(t_address,t_bool)"
          },
          {
            "astId": 18,
            "contract": "contracts/StakingCarbon.sol:StakingCarbon",
            "label": "adminRole",
            "offset": 0,
            "slot": "1",
            "type": "t_bytes32"
          }
        ],
        "numberOfBytes": "64"
      },
      "t_struct(StakingOptions)1759_storage": {
        "encoding": "inplace",
        "label": "struct StakingCarbon.StakingOptions",
        "members": [
          {
            "astId": 1752,
            "contract": "contracts/StakingCarbon.sol:StakingCarbon",
            "label": "name",
            "offset": 0,
            "slot": "0",
            "type": "t_string_storage"
          },
          {
            "astId": 1754,
            "contract": "contracts/StakingCarbon.sol:StakingCarbon",
            "label": "lockDurations",
            "offset": 0,
            "slot": "1",
            "type": "t_uint256"
          },
          {
            "astId": 1756,
            "contract": "contracts/StakingCarbon.sol:StakingCarbon",
            "label": "requiredToken",
            "offset": 0,
            "slot": "2",
            "type": "t_uint256"
          },
          {
            "astId": 1758,
            "contract": "contracts/StakingCarbon.sol:StakingCarbon",
            "label": "isActive",
            "offset": 0,
            "slot": "3",
            "type": "t_bool"
          }
        ],
        "numberOfBytes": "128"
      },
      "t_struct(UserState)1771_storage": {
        "encoding": "inplace",
        "label": "struct StakingCarbon.UserState",
        "members": [
          {
            "astId": 1768,
            "contract": "contracts/StakingCarbon.sol:StakingCarbon",
            "label": "package",
            "offset": 0,
            "slot": "0",
            "type": "t_uint256"
          },
          {
            "astId": 1770,
            "contract": "contracts/StakingCarbon.sol:StakingCarbon",
            "label": "latestUpdate",
            "offset": 0,
            "slot": "1",
            "type": "t_uint256"
          }
        ],
        "numberOfBytes": "64"
      },
      "t_uint256": {
        "encoding": "inplace",
        "label": "uint256",
        "numberOfBytes": "32"
      }
    }
  }
}